S0160000496D706C656D656E746174696F6E2E7372656348
S113000075C0000084C0000082C0000080C00000F1
S1130010DEC100007CC0000001C2000078C0000006
S113002076C0000074C0000072C0000070C0000000
S11300306EC000006CC000006AC0000068C0000010
S113004066C0000064C0000062C0000060C0000020
S113005009C600005CC000005AC0000058C000007F
S113006056C0000054C0000052C0000050C0000040
S11300704EC000004CC000004AC0000048C0000050
S113008046C0000044C0000043C00000550671068D
S11300907A077A077A077A077A077A077A077A0754
S11300A0920695067A077A077A077A0799069E06D2
S11300B07A077A077A077A077A077A077A077A0734
S11300C0A306AD06B7067A077A077A07C106C506FE
S11300D0CF0602077A077A077A077A077A077A0738
S11300E035074B075F0766076D07740711241FBEAA
S11300F0CFEFD0E4DEBFCDBF21E0A0E0B1E001C08E
S11301001D92A731B207E1F756D00C94580978CF65
S11301101F920F920FB60F9211240BB60F922F93CA
S11301203F934F935F936F937F938F939F93AF937B
S1130130BF93EF93FF938DEE95E890939500809392
S1130140940067E083E058D2FF91EF91BF91AF91A3
S11301509F918F917F916F915F914F913F912F91DB
S11301600F900BBE0F900FBE0F901F90189520E0BC
S113017041E065E080E0D3D120E040E066E080E04B
S1130180CED120E041E067E083E0C9D167E083E0BD
S11301901BD2109290001092910010929200109233
S11301A095001092940080E480936B0060E088E6F0
S11301B090E03AC20895AFD123E341E060E080E0EB
S11301C0ACD661E081E0E7D6D2DF78942FEF86E702
S11301D091E0215080409040E1F700C0000096D1AA
S11301E0BC0180E090E015D720E030E040E052E42C
S11301F0C2D726E933E44BE85CE3BDD7DED680E022
S113020090E007D720E030E040E251E4D2D68823E2
S113021024F467E083E0D8D103C067E083E0BCD175
S113022065E080E0B9D128E22A95F1F765E080E045
S1130230CBD1CCCFCF9380B166E033D2813071F48F
S1130240E4E9F0E0808191819093070180930601B5
S11302501182108284E0809391000FC080B166E027
S113026020D281110AC080919400909195009093BE
S11302700701809306011092910080B167E011D2CA
S1130280C82F80B166E00DD240E8C49F90011124CC
S113029040E4849FC0011124822B8093090186B11C
S11302A061E0FFD1C82F86B160E0FBD1CC0F8C2B6D
S11302B08093080130910A0120910F018091090176
S11302C090910801232B892B82278038A1F48091F7
S11302D0100190911101A0911201B09113010196A6
S11302E0A11DB11D8093100190931101A0931201DF
S11302F0B093130162C030910A0120910F018091E3
S1130300090190910801232B892B82278034A1F4C1
S11303108091100190911101A0911201B0911301EB
S11303200196A11DB11D8093100190931101A0931A
S11303301201B093130141C030910A0120910F01C1
S11303408091090190910801232B892B8227823007
S1130350A1F480910B0190910C01A0910D01B09139
S11303600E010196A11DB11D80930B0190930C0108
S1130370A0930D01B0930E0120C030910A01209189
S11303800F018091090190910801232B892B822769
S1130390813099F480910B0190910C01A0910D0191
S11303A0B0910E010196A11DB11D80930B01909394
S11303B00C01A0930D01B0930E018091090180936B
S11303C00A018091080180930F01CF9108951F9233
S11303D00F920FB60F9211240BB60F922F933F93E7
S11303E04F935F936F937F938F939F93AF93BF9339
S11303F0EF93FF931FDFFF91EF91BF91AF919F9117
S11304008F917F916F915F914F913F912F910F90B9
S11304100BBE0F900FBE0F901F9018951F920F9256
S11304200FB60F9211240BB60F922F933F934F9355
S11304305F936F937F938F939F93AF93BF93EF9348
S1130440FF93F8DEFF91EF91BF91AF919F918F9150
S11304507F916F915F914F913F912F910F900BBEC0
S11304600F900FBE0F901F90189520E040E067E0BA
S113047080E055D020E040E066E080E050D020E00D
S113048040E061E082E04BD020E040E060E082E0C8
S113049046D0109210011092110110921201109284
S11304A013011092090110920A0110920B0110928B
S11304B00C0110920D0110920E011092080110927D
S11304C00F01EBE6F0E08081806E8083EDE6F0E0E2
S11304D0808187618083089560E088E690E0B0D0F1
S11304E062E088E690E0ACC008951092100110928A
S11304F01101109212011092130110920B0110922B
S11305000C0110920D0110920E01089580910601C4
S113051090910701089580E885BF85BF08951F93D2
S1130520CF93DF93D62FC42F122F813089F028F078
S11305308230C9F0833011F12BC081E290E099D070
S1130540C11126C0412F6D2F82E290E092D020C0CD
S113055084E290E08ED0C1111BC0412F6D2F85E243
S113056090E087D015C087E290E083D0C11110C01D
S1130570412F6D2F88E290E07CD00AC08AE290E09F
S113058078D0C11105C0412F6D2F8BE290E071D05E
S1130590DF91CF911F910895813051F028F082307E
S11305A059F0833069F0089582E290E03DC00895E7
S11305B085E290E039C0089588E290E035C008955E
S11305C08BE290E031C00895813051F028F0823000
S11305D059F0833069F0089582E290E031C00895C3
S11305E085E290E02DC0089588E290E029C0089546
S11305F08BE290E025C00895813051F028F08230DC
S113060059F0833069F0089582E290E026C008959D
S113061085E290E022C0089588E290E01EC008952B
S11306208BE290E01AC00895FC01408121E030E0A3
S113063002C0220F331F6A95E2F7242B208308950A
S1130640FC01908121E030E002C0220F331F6A9543
S1130650E2F72095292320830895FC01408121E0BD
S113066030E002C0220F331F6A95E2F7242720836B
S11306700895FC01942F208141E050E0062E02C031
S1130680440F551F0A94E2F7409550952423492FAF
S113069050E002C0440F551F6A95E2F7422B408395
S11306A0089590E002C0959587956A95E2F7817068
S11306B008950F9320E041E067E082E030DF20E01E
S11306C041E066E082E02BDF20E041E065E082E08B
S11306D026DF20E041E063E082E021DF00E022E069
S11306E048EB58E860E070E080E020D101E022E0CF
S11306F048EA51E660E070E080E018D10F91089577
S113070067E082E049DF66E082E05EDF65E082E088
S11307105BDF63E082E040DF40E062E088E2E0D15A
S113072041E062E088E2DCD182E02BC2089582E0FD
S11307306FC20895813099F028F08230E9F0833057
S113074041F1089567E082E027DF66E082E03CDF64
S113075065E082E039DF63E082E01ECF089567E060
S113076082E032DF66E082E017DF65E082E014DFDA
S113077063E082E029CF089567E082E025DF66E048
S113078082E00ADF65E082E01FDF63E082E004CFFD
S1130790089567E082E000DF66E082E015DF65E04F
S11307A082E0FADE63E082E00FCF0895CF93C82F92
S11307B040E062E095D141E062E08C2F91D1CF918D
S11307C008951F93CF93DF93162FC42FD22F88231E
S11307D019F0813041F00DC067E082E0F5DE66E09B
S11307E082E0DADE06C067E082E0D6DE66E082E020
S11307F0EBDE40E062E0812F73D1CC2319F0C130ED
S113080041F00DC065E082E0DFDE63E082E0C4DE3B
S113081006C065E082E0C0DE63E082E0D5DE41E050
S113082062E08D2F5DD1DF91CF911F910895CF921A
S1130830DF92EF92FF92CF93DF93EC016A017B0189
S1130840213009F069C060E072E18AE790E0A70115
S11308509601F4D4DA01C9010197A109B1090097FD
S113086021E0A207B10528F421E030E03983288390
S113087056C060E472E48FE090E0A7019601DED4F4
S1130880DA01C9010197A109B109009721E0A20782
S1130890B10528F428E030E03983288340C068E4B7
S11308A078EE81E090E0A7019601C8D4DA01C9018D
S11308B00197A109B109009721E0A207B10528F425
S11308C020E430E0398328832AC062E17AE780E0BB
S11308D090E0A7019601B2D4DA01C9010197A109F8
S11308E0B109009721E0A207B10528F420E031E026
S11308F03983288314C080E094E09983888364E872
S11309007EE180E090E0A701960198D4DA01C90164
S11309100197A109B10903C080E090E0DC01DF91F7
S1130920CF91FF90EF90DF90CF9008950F931F9396
S1130930CF93DF9300D0CDB7DEB7182F1A82198278
S1130940213021F0223009F481C0C3C021E0CE015E
S113095001966DDF909387008093860089819A8148
S113096080349105B9F030F48130910559F008973D
S113097069F01BC0811521E0920781F08115944034
S113098089F013C081E0809314010FC082E080934A
S113099014010BC083E08093140107C084E08093AA
S11309A0140103C085E08093140160E080E890E0C6
S11309B047DE61E080E890E037DE64E081E890E0C3
S11309C033DE63E081E890E02FDE002319F001308C
S11309D0F9F07FC020E041E065E083E0A0DD67E05E
S11309E080E890E021DE66E080E890E029DEA091D6
S11309F08600B0918700212F30E04BD424E630E00C
S1130A0040E050E01BD4309389002093880061C0FB
S1130A1020E041E064E083E082DD65E080E890E08E
S1130A2003DE64E080E890E00BDEA0918600B091E4
S1130A308700212F30E02DD424E630E040E050E060
S1130A40FDD330938B0020938A0043C01092700032
S1130A5065E086EB90E0F4DD63E081EB90E0F0DDAF
S1130A6061E080EB90E0E0DD60E080EB90E0DCDDD5
S1130A7081E080931501002319F00130B1F029C001
S1130A8020E041E067E083E04ADD8FEF189F9001AA
S1130A9011243695279536952795ABE7B4E1F9D31C
S1130AA0969587958093B30014C020E041E066E0FA
S1130AB083E035DD8FEF189F90011124369527953B
S1130AC036952795ABE7B4E1E4D396958795809363
S1130AD0B4000F900F90DF91CF911F910F91089563
S1130AE0613019F0623041F10895442319F0413026
S1130AF091F00895A0918600B0918700282F30E0EE
S1130B00C8D324E630E040E050E098D33093890025
S1130B10209388000895A0918600B0918700282F23
S1130B2030E0B7D324E630E040E050E087D33093A0
S1130B308B0020938A000895442319F0413089F0F2
S1130B4008959FEF899F9001112436952795369536
S1130B502795ABE7B4E19DD3969587958093B30031
S1130B6008959FEF899F9001112436952795369516
S1130B702795ABE7B4E18DD3969587958093B40020
S1130B800895813019F08230D1F008954091140114
S1130B9042FB442740F962E081E890E06ADD40913D
S1130BA014014695417061E081E890E062DD409176
S1130BB01401417060E081E890E05BCD08954091BC
S1130BC0150142FB442740F962E081EB90E051DDDE
S1130BD0409115014695417061E081EB90E049DD5B
S1130BE040911501417060E081EB90E042DD67E0E7
S1130BF080EB90E019DD66E080EB90E021DD65E0BC
S1130C0080EB90E011DD64E080EB90E019CD089575
S1130C10813019F0823071F0089562E081E890E04B
S1130C200FDD61E081E890E00BDD60E081E890E0B9
S1130C3007CD089562E081EB90E002DD61E081EB95
S1130C4090E0FEDC60E081EB90E0FADCE0EBF0E0C9
S1130C5080818F70808367E083E0B6DC66E083E0A8
S1130C60B3CC08951F920F920FB60F9211240BB6B6
S1130C700F922F933F934F935F936F937F938F9331
S1130C809F93AF93BF93EF93FF938091C60080939C
S1130C901601E09116018E2F90E08033910508F043
S1130CA029C1FC01EA5BFF4FEBC2109203011092D1
S1130CB0040110920101109202011092000137DD2B
S1130CC014DC0ADC62E080E07FDC81E0A1DF60E02C
S1130CD081E062DC61E081E077DC62E081E074DC89
S1130CE009C181E08093030180930101E2DCBDDB53
S1130CF081E047DF62E080E04FDC60E081E064DCBB
S1130D0080910501811107C061E081E045DC62E06A
S1130D1081E05ADCEFC061E081E056DC62E081E012
S1130D203BDCE8C010920501E5C081E08093050139
S1130D30E1C01092040181E06BDFDCC081E08093AC
S1130D4004011FDFD7C080910401882309F4D2C0B5
S1130D5041E061E083E0C4DECDC0809104018823DA
S1130D6009F4C8C041E061E087E0BADEC3C0809105
S1130D700401882309F4BEC041E061E08CE0B0DEE8
S1130D80B9C010920101D3DCB5C081E080930101A8
S1130D90B7DC88E28093020180930001ABC08091AC
S1130DA00101882309F4A6C08091000190E02091FC
S1130DB00201AC01420F511D9A01359527952A5025
S1130DC020930201820F911D95958795865F8093EC
S1130DD00001293238F488E28093020182E380938F
S1130DE0000108C0843630F084E6809300018AE56F
S1130DF0809302012091000144E06091020184E0AB
S1130E00E0DC78C080910101882309F473C08091EB
S1130E10000190E020910201AC01420F511D9A01A2
S1130E2035952795265F20930201820F911D959594
S1130E3087958A5080930001893238F488E2809340
S1130E40000182E38093020108C0243630F084E676
S1130E50809302018AE5809300012091000144E01F
S1130E606091020184E0ADDC45C0809101018823DA
S1130E7009F440C080910201843608F03BC090918F
S1130E8000019436B8F5865F80930201965F9093D3
S1130E9000018CDC2FC080910101882359F18091DD
S1130EA00201893238F190910001993218F18A5087
S1130EB0809302019A509093000178DC1BC08091CA
S1130EC001018823B9F080E035DC14C08091010170
S1130ED0882381F081E02EDC0DC0809101018823FC
S1130EE049F082E027DC06C080910101882311F0DB
S1130EF083E020DCFF91EF91BF91AF919F918F919F
S1130F007F916F915F914F913F912F910F900BBE05
S1130F100F900FBE0F901F9018950F931F93CF93B0
S1130F20DF93082F162FD42FC22F61E080EC90E0BE
S1130F3087DB62E081EC90E083DB62E082EC90E0AE
S1130F4073DB61E082EC90E06FDB67E082EC90E0C1
S1130F5077DB402F66E082EC90E08BDB65E082EC8F
S1130F6090E062DB412F64E082EC90E082DB4D2F65
S1130F7063E082EC90E07DDB2C2F30E03093C50001
S1130F802093C40067E081EC90E04EDBDF91CF91C9
S1130F901F910F910895CF93C82F462F64E081ECE1
S1130FA090E067DB4C2F63E081EC90E062DBCF9153
S1130FB008956CD008F481E00895BCD088F09F5760
S1130FC090F0B92F9927B751A0F0D1F0660F771F91
S1130FD0881F991F1AF0BA95C9F712C0B13081F071
S1130FE0C3D0B1E00895C0C0672F782F8827B85FB9
S1130FF039F0B93FCCF3869577956795B395D9F7D2
S11310003EF490958095709561957F4F8F4F9F4FDB
S11310100895E89409C097FB3EF4909580957095E7
S113102061957F4F8F4F9F4F9923A9F0F92F96E930
S1131030BB279395F695879577956795B795F111A5
S1131040F8CFFAF4BB0F11F460FF1BC06F5F7F4F42
S11310508F4F9F4F16C0882311F096E911C0772354
S113106021F09EE8872F762F05C0662371F096E85D
S1131070862F70E060E02AF09A95660F771F881F2C
S1131080DAF7880F9695879597F90895990F0008D0
S1131090550FAA0BE0E8FEEF16161706E807F90746
S11310A0C0F012161306E407F50798F0621B730BE1
S11310B0840B950B39F40A2661F0232B242B252B62
S11310C021F408950A2609F4A140A6958FEF811D05
S11310D0811D089597F99F6780E870E060E00895A6
S11310E09FEF80EC089500240A941616170618063C
S11310F00906089500240A94121613061406050618
S11311000895092E0394000C11F4882352F0BB0FA8
S113111040F4BF2B11F460FF04C06F5F7F4F8F4F0B
S11311209F4F089557FD9058440F551F59F05F3F46
S113113071F04795880F97FB991F61F09F3F79F0F5
S113114087950895121613061406551FF2CF469577
S1131150F1DF08C0161617061806991FF1CF8695F9
S11311607105610508940895E894BB2766277727DD
S1131170CB0197F908950BD0C4CFB5DF28F0BADFBF
S113118018F0952309F0A6CFABCF1124EECFCADF18
S1131190A0F3959FD1F3950F50E0551F629FF00186
S11311A0729FBB27F00DB11D639FAA27F00DB11DDF
S11311B0AA1F649F6627B00DA11D661F829F222768
S11311C0B00DA11D621F739FB00DA11D621F839FEF
S11311D0A00D611D221F749F3327A00D611D231FC5
S11311E0849F600D211D822F762F6A2F11249F5713
S11311F050408AF0E1F088234AF0EE0FFF1FBB1F36
S1131200661F771F881F91505040A9F79E3F5105D4
S113121070F060CFAACF5F3FECF3983EDCF3869585
S113122077956795B795F795E7959F5FC1F7FE2B7F
S1131230880F911D9695879597F90895A1E21A2E26
S1131240AA1BBB1BFD010DC0AA1FBB1FEE1FFF1F66
S1131250A217B307E407F50720F0A21BB30BE40BB6
S1131260F50B661F771F881F991F1A9469F76095FD
S11312707095809590959B01AC01BD01CF010895B7
S1131280EE0FFF1F0024001C0BBE0790F691E02D0B
S11312900994A29FB001B39FC001A39F700D811D4B
S11312A01124911DB29F700D811D1124911D08956B
S10712B0F894FFCFDC
S9030000FC
