S0160000496D706C656D656E746174696F6E2E7372656348
S113000045C0000060C000005EC000005CC000008D
S11300105AC0000058C0000056C0000054C0000080
S113002052C0000050C000004EC000004CC0000090
S11300304AC0000048C0000046C0000044C00000A0
S113004042C0000040C000003EC000003CC00000B0
S11300503AC0000038C0000036C0000034C00000C0
S113006032C0000030C000002EC000002CC00000D0
S11300702AC0000028C0000026C0000024C00000E0
S113008022C0000020C000001FC0000011241FBEB9
S1130090CFEFD0E4DEBFCDBF11E0A0E0B1E0EAEDE8
S11300A0FDE000E00BBF02C007900D92A030B10745
S11300B0D9F721E0A0E0B1E001C01D92A231B2075E
S11300C0E1F704D188C69CCF1F920F920FB60F920E
S11300D011240BB60F924F925F926F927F928F9280
S11300E09F92AF92BF92CF92DF92EF92FF922F93A3
S11300F03F934F935F936F937F938F939F93AF93AC
S1130100BF93EF93FF938DE19BEF909395008093C2
S1130110940080E06AD16C01E12CF12C6091000123
S113012070910101809102019091030140900401BA
S113013050900501609006017090070120D52EE8CB
S113014035E741E55FE3A9D54B015C01C301B20189
S113015016D526E03FE24AEB5DE39FD59B01AC0157
S1130160C501B4017CD44B015C01C701B60107D5BC
S113017026E03FE24AEB5DE390D59B01AC01C5016B
S1130180B4016DD4D0D44B015C018FEF881683E0A9
S11301909806A104B10440F00F2E88248A94F3E059
S11301A09F2EA12CB12CF02DA4E6B0E0A501940162
S11301B008D62FEF33E040E050E0D2D5822F40E064
S11301C061E060D38092000190920101A09202014B
S11301D0B0920301C0920401D0920501E09206019D
S11301E0F0920701FF91EF91BF91AF919F918F9191
S11301F07F916F915F914F913F912F91FF90EF907D
S1130200DF90CF90BF90AF909F908F907F906F9032
S11302105F904F900F900BBE0F900FBE0F901F90EA
S113022018950F93CF9300E021E040E157E260E09E
S113023070E080E04DD281E076D3109204011092F8
S1130240050110920601109207011092000110920C
S11302500101109202011092030120E040E060E0ED
S113026080E005D140E064E080E040D0E9E0F1E0E6
S113027080E191E01192E817F907E1F7C1E0C0933A
S1130280080188E091E07CD020E041E060E082E079
S1130290EED060E082E028D110929000109292009B
S11302A0C093710084E0809391008DE19BEF909363
S11302B095008093940029E141E060E080E07AD3E6
S11302C060E081E0BDD3CF910F910895CCD0A9DF38
S11302D0789460E082E020D12FEF89E698E1215004
S11302E080409040E1F700C00000F3CF1F93CF930C
S11302F0DF93182FC62FD42F67E08CE790E030D11E
S113030066E08CE790E020D1412F65E08CE790E037
S113031040D164E08CE790E023D163E08CE790E087
S11303201FD1C2FB442740F962E08AE790E031D153
S1130330C1FB442740F961E08AE790E02AD14C2FC1
S1130340417060E08AE790E024D1D11105C065E0F6
S11303508AE790E005D110C065E08AE790E0F4D028
S113036062E08BE790E0FCD061E08BE790E0F8D0AE
S113037060E08BE790E0F4D0DF91CF911F91089576
S1130380EF92FF920F931F93CF93DF93D82FC92F30
S113039067E08AE790E0D8D00D2F1C2FC0E0D0E0B2
S11303A0EE24E394F12CF80141918F01B7010C2E56
S11303B002C0660F771F0A94E2F78EE790E0E9D057
S11303C02196C830D10579F780917A0065E0F9D09B
S11303D0882321F066E08AE790E0B6D0DF91CF91E0
S11303E01F910F91FF90EF900895ECE7F0E090815A
S11303F0987F892B808380917A0065E0E2D0811117
S11304000AC066E08AE790E09FD0EAE7F0E08081E6
S113041084FFFDCF12C064E08AE790E095D0EAE75C
S1130420F0E0808184FFFDCF64E08AE790E08CD027
S1130430EAE7F0E0808184FFFDCF80917C0065E0F5
S1130440C0D0882331F0813059F48091790090E054
S11304500895809178002091790090E0922B08957E
S113046080E090E0089580E885BF85BF08951F93DC
S1130470CF93DF93D62FC42F122F813089F028F029
S11304808230C9F0833011F12BC081E290E081D039
S1130490C11126C0412F6D2F82E290E07AD020C096
S11304A084E290E076D0C1111BC0412F6D2F85E20C
S11304B090E06FD015C087E290E06BD0C11110C0FE
S11304C0412F6D2F88E290E064D00AC08AE290E068
S11304D060D0C11105C0412F6D2F8BE290E059D03F
S11304E0DF91CF911F910895813051F028F082302F
S11304F059F0833069F0089582E290E031C00895A4
S113050085E290E02DC0089588E290E029C0089526
S11305108BE290E025C00895813051F028F08230BC
S113052059F0833069F0089582E290E026C008957E
S113053085E290E022C0089588E290E01EC008950C
S11305408BE290E01AC00895FC01408121E030E084
S113055002C0220F331F6A95E2F7242B20830895EB
S1130560FC01908121E030E002C0220F331F6A9524
S1130570E2F72095292320830895FC01408121E09E
S113058030E002C0220F331F6A95E2F7242720834C
S11305900895FC01942F208141E050E0062E02C012
S11305A0440F551F0A94E2F7409550952423492F90
S11305B050E002C0440F551F6A95E2F7422B408376
S11305C0089590E002C0959587956A95E2F7817049
S11305D00895CF92DF92EF92FF92CF93DF93EC01D5
S11305E06A017B01213009F069C060E072E18AE7A9
S11305F090E0A7019601B4D3DA01C9010197A109DA
S1130600B109009721E0A207B10528F421E030E008
S11306103983288356C060E472E48FE090E0A70138
S113062096019ED3DA01C9010197A109B109009786
S113063021E0A207B10528F428E030E039832883BB
S113064040C068E478EE81E090E0A701960188D389
S1130650DA01C9010197A109B109009721E0A207B4
S1130660B10528F420E430E0398328832AC062E10C
S11306707AE780E090E0A701960172D3DA01C9011C
S11306800197A109B109009721E0A207B10528F457
S113069020E031E03983288314C080E094E099831A
S11306A0888364E87EE180E090E0A701960158D356
S11306B0DA01C9010197A109B10903C080E090E002
S11306C0DC01DF91CF91FF90EF90DF90CF90089500
S11306D00F931F93CF93DF9300D0CDB7DEB7182FBE
S11306E01A821982213021F0223009F481C0C3C05A
S11306F021E0CE0101966DDF909387008093860000
S113070089819A8180349105B9F030F48130910562
S113071059F0089769F01BC0811521E0920781F018
S11307208115944089F013C081E0809310010FC0BB
S113073082E0809310010BC083E08093100107C016
S113074084E08093100103C085E08093100160E091
S113075080E890E005DF61E080E890E0F5DE64E0A9
S113076081E890E0F1DE63E081E890E0EDDE0023D3
S113077019F00130F9F07FC020E041E065E083E04A
S113078076DE67E080E890E0DFDE66E080E890E017
S1130790E7DEA0918600B0918700212F30E002D3DC
S11307A024E630E040E050E0DBD23093890020932F
S11307B0880061C020E041E064E083E058DE65E049
S11307C080E890E0C1DE64E080E890E0C9DEA091BA
S11307D08600B0918700212F30E0E4D224E630E097
S11307E040E050E0BDD230938B0020938A0043C098
S11307F01092700065E086EB90E0B2DE63E081EB7E
S113080090E0AEDE61E080EB90E09EDE60E080EBA5
S113081090E09ADE81E080931101002319F0013009
S1130820B1F029C020E041E067E083E020DE8FEFF3
S1130830189F900111243695279536952795ABE797
S1130840B4E1B0D2969587958093B30014C020E0AC
S113085041E066E083E00BDE8FEF189F90011124E6
S11308603695279536952795ABE7B4E19BD29695B7
S113087087958093B4000F900F90DF91CF911F91D3
S11308800F910895613019F0623041F108954423C5
S113089019F0413091F00895A0918600B09187003D
S11308A0282F30E07FD224E630E040E050E058D2F8
S11308B030938900209388000895A0918600B09118
S11308C08700282F30E06ED224E630E040E050E08C
S11308D047D230938B0020938A000895442319F063
S11308E0413089F008959FEF899F90011124369536
S11308F0279536952795ABE7B4E154D2969587951D
S11309008093B30008959FEF899F90011124369539
S1130910279536952795ABE7B4E144D2969587950C
S11309208093B4000895813019F08230D1F0089595
S11309304091100142FB442740F962E081E890E0D5
S113094028DE409110014695417061E081E890E015
S113095020DE40911001417060E081E890E019CE02
S113096008954091110142FB442740F962E081EB74
S113097090E00FDE409111014695417061E081EBFA
S113098090E007DE40911101417060E081EB90E05E
S113099000DE67E080EB90E0D7DD66E080EB90E07E
S11309A0DFDD65E080EB90E0CFDD64E080EB90E09C
S11309B0D7CD08950F931F93CF93DF93082F162F4E
S11309C0D42FC22F61E08AE290E0BEDD60E08AE2CB
S11309D090E0C6DD61E080EC90E0C2DD62E081EC95
S11309E090E0BEDD62E082EC90E0AEDD61E082EC9E
S11309F090E0AADD67E082EC90E0B2DD402F66E093
S1130A0082EC90E0C6DD65E082EC90E09DDD412F54
S1130A1064E082EC90E0BDDD4D2F63E082EC90E079
S1130A20B8DD2C2F30E03093C5002093C40067E07C
S1130A3081EC90E089DDDF91CF911F910F910895B2
S1130A40CF93C82F462F64E081EC90E0A2DD4C2FB9
S1130A5063E081EC90E09DDDCF9108955058BB2771
S1130A60AA270ED0E0C0D1D030F0D6D020F031F497
S1130A709F3F11F41EF4C6C00EF4E095E7FBBCC022
S1130A80E92FE2D080F3BA1762077307840795074A
S1130A9018F071F49EF5FAC00EF4E0950B2EBA2FFF
S1130AA0A02D0B01B90190010C01CA01A001112470
S1130AB0FF27591B99F0593F50F4503E68F11A161C
S1130AC0F040A22F232F342F4427585FF3CF4695AD
S1130AD037952795A795F0405395C9F77EF41F16CF
S1130AE0BA0B620B730B840BBAF09150A1F0FF0F99
S1130AF0BB1F661F771F881FC2F70EC0BA0F621F85
S1130B00731F841F48F4879577956795B795F79574
S1130B109E3F08F0B3CF9395880F08F09927EE0F06
S1130B2097958795089598D088F09F5790F0B92F9E
S1130B309927B751A0F0D1F0660F771F881F991F2E
S1130B401AF0BA95C9F712C0B13081F09FD0B1E064
S1130B5008959CC0672F782F8827B85F39F0B93F74
S1130B60CCF3869577956795B395D9F73EF4909530
S1130B708095709561957F4F8F4F9F4F0895E894AE
S1130B8009C097FB3EF490958095709561957F4FD1
S1130B908F4F9F4F9923A9F0F92F96E9BB2793957F
S1130BA0F695879577956795B795F111F8CFFAF48F
S1130BB0BB0F11F460FF1BC06F5F7F4F8F4F9F4FC0
S1130BC016C0882311F096E911C0772321F09EE81E
S1130BD0872F762F05C0662371F096E8862F70E084
S1130BE060E02AF09A95660F771F881FDAF7880F5E
S1130BF09695879597F9089597F99F6780E870E02F
S1130C0060E008959FEF80EC089500240A9416167E
S1130C10170618060906089500240A9412161306E6
S1130C20140605060895092E0394000C11F4882374
S1130C3052F0BB0F40F4BF2B11F460FF04C06F5F90
S1130C407F4F8F4F9F4F089557FD9058440F551F66
S1130C5059F05F3F71F04795880F97FB991F61F03A
S1130C609F3F79F087950895121613061406551FB1
S1130C70F2CF4695F1DF08C0161617061806991F1D
S1130C80F1CF86957105610508940895E894BB2712
S1130C9066277727CB0197F908950BD0C4CFB5DF2A
S1130CA028F0BADF18F0952309F0A6CFABCF1124B2
S1130CB0EECFCADFA0F3959FD1F3950F50E0551FF7
S1130CC0629FF001729FBB27F00DB11D639FAA279D
S1130CD0F00DB11DAA1F649F6627B00DA11D661FEC
S1130CE0829F2227B00DA11D621F739FB00DA11D0D
S1130CF0621F839FA00D611D221F749F3327A00DC7
S1130D00611D231F849F600D211D822F762F6A2F62
S1130D1011249F5750408AF0E1F088234AF0EE0FE7
S1130D20FF1FBB1F661F771F881F91505040A9F7F4
S1130D309E3F510570F060CFAACF5F3FECF3983E21
S1130D40DCF3869577956795B795F795E7959F5F5B
S1130D50C1F7FE2B880F911D9695879597F90895F5
S1130D60A1E21A2EAA1BBB1BFD010DC0AA1FBB1FAB
S1130D70EE1FFF1FA217B307E407F50720F0A21B1D
S1130D80B30BE40BF50B661F771F881F991F1A948A
S1130D9069F760957095809590959B01AC01BD01B4
S1130DA0CF010895A29FB001B39FC001A39F700D0E
S1130DB0811D1124911DB29F700D811D1124911D5F
S1130DC00895F0DFA59F900DB49F900DA49F800D12
S10D0DD0911D11240895F894FFCF3B
S9030000FC
