S0160000496D706C656D656E746174696F6E2E7372656348
S113000075C0000083C0000081C000007FC00000F4
S11300105EC200007BC0000081C2000077C0000007
S113002075C0000073C0000071C000006FC0000004
S11300306DC000006BC0000069C0000067C0000014
S113004065C0000063C0000061C000005FC0000024
S113005068C600005BC0000059C0000057C0000023
S113006055C0000053C0000051C000004FC0000044
S11300704DC000004BC0000049C0000047C0000054
S113008045C0000043C0000041C00000B406D006D3
S1130090D907D907D907D907D907D907D907D9075C
S11300A0F106F406D907D907D907D907F806FD06DA
S11300B0D907D907D907D907D907D907D907D9073C
S11300C002070C071607D907D907D9072007240701
S11300D02E076107D907D907D907D907D907D9073F
S11300E09407AA07BE07C507CC07D30711241FBE70
S11300F0CFEFD0E4DEBFCDBF21E0A0E0B1E001C08E
S11301001D92AB31B207E1F77BD0F4C779CF0F93DF
S1130110CF9310920301C1E0C09305011092040132
S113012010920101109202011092000120E041E0BE
S113013060E081E077D220E041E061E081E072D2CA
S113014020E041E062E081E06DD260E081E0A7D28E
S113015061E081E0BCD262E081E0B9D200E021E05C
S113016042E350E060E070E080E03FD420E041E012
S113017062E080E057D262E080E0A9D201E021E0B1
S113018042E350E060E070E087E02FD423E341E0F5
S113019060E080E021D761E081E05CD7C093030197
S11301A0C0930101E5D2E1D181E04AD562E080E06B
S11301B076D260E081E08BD280910501811107C085
S11301C061E081E06CD262E081E081D206C061E04E
S11301D081E07DD262E081E062D281E0809301011E
S11301E0EED280E580930201809300013ED381E04A
S11301F027D540E061E08AE5D2D4CF910F910895EC
S11302000DD285DF78942FEF83ED90E32150804069
S11302109040E1F700C0000081E0EBD241E061E0F2
S113022083E0BDD460E081E052D261E081E04FD24E
S113023062E081E034D22FEF83ED90E321508040DF
S11302409040E1F700C0000082E0D3D241E061E0D9
S113025087E0A5D440E061E080E0A1D460E081E0E3
S11302601ED261E081E033D262E081E030D22FEF30
S113027083ED90E3215080409040E1F700C00000FE
S113028083E0B7D241E061E08CE089D460E081E0B2
S11302901ED261E081E003D262E081E018D22FEF48
S11302A083ED90E3215080409040E1F700C00000CE
S11302B080E09FD241E061E087E071D440E061E0FA
S11302C084E66DD460E081E0EAD161E081E0E7D1C9
S11302D062E081E0E4D197CFCF93F89480B167E0F6
S11302E03FD2C82F80B166E03BD240E8C49F900162
S11302F0112440E4849FC0011124822B80930A01BD
S113030086B161E02DD2C82F86B160E029D2CC0F2E
S11303108C2B8093080130910D0120911301809161
S11303200A0190910801232B892B82278038A1F49C
S11303308091140190911501A0911601B0911701BB
S11303400196A11DB11D8093140190931501A093F2
S11303501601B093170162C030910D012091130171
S113036080910A0190910801232B892B82278034E4
S1130370A1F48091140190911501A0911601B091FE
S113038017010196A11DB11D8093140190931501CD
S1130390A0931601B093170141C030910D01209133
S11303A0130180910A0190910801232B892B822744
S11303B08230A1F480910E0190910F01A09110015F
S11303C0B09111010196A11DB11D80930E0190936E
S11303D00F01A0931001B093110120C030910D01C1
S11303E02091130180910A0190910801232B892BFC
S11303F08227813099F480910E0190910F01A09190
S11304001001B09111010196A11DB11D80930E013F
S113041090930F01A0931001B093110180910A01F0
S113042080930D01809108018093130186B162E0ED
S113043097D18093120186B164E092D18093070131
S113044080B165E08DD180930B0190911201809170
S1130450090198130CC0909107018091060198132B
S113046006C090910B0180910C01981709F18091BD
S11304701201882339F080911201FAD58DE0F8D564
S11304808AE0F6D580910701882339F0809107012D
S1130490EFD58DE0EDD58AE0EBD580910B01882373
S11304A039F080910B01E4D58DE0E2D58AE0E0D506
S11304B080911201809309018091070180930601C4
S11304C080910B0180930C017894CF9108951F9231
S11304D00F920FB60F9211240BB60F922F933F93E6
S11304E04F935F936F937F938F939F93AF93BF9338
S11304F0EF93FF93F1DEFF91EF91BF91AF919F9145
S11305008F917F916F915F914F913F912F910F90B8
S11305100BBE0F900FBE0F901F9018951F920F9255
S11305200FB60F9211240BB60F922F933F934F9354
S11305305F936F937F938F939F93AF93BF93EF9347
S1130540FF93CADEFF91EF91BF91AF919F918F917D
S11305507F916F915F914F913F912F910F900BBEBF
S11305600F900FBE0F901F90189520E040E067E0B9
S113057080E058D020E040E066E080E053D020E006
S113058040E061E082E04ED020E040E060E082E0C4
S113059049D0109214011092150110921601109274
S11305A0170110920A0110920D0110920E0110927F
S11305B00F01109210011092110110920801109273
S11305C01301EBE6F0E08081806E8083EDE6F0E0DD
S11305D0808187618083089560E088E690E09BD005
S11305E062E088E690E097C008951092140110929A
S11305F01501109216011092170110920A0110921F
S11306000D0110920E0110920F0110921001109220
S113061011011092080110921301089580E885BF1A
S113062085BF08951F93CF93DF93D62FC42F122F26
S1130630813089F028F08230C9F0833011F12BC069
S113064081E290E075D0C11126C0412F6D2F82E266
S113065090E06ED020C084E290E06AD0C1111BC04B
S1130660412F6D2F85E290E063D015C087E290E0C2
S11306705FD0C11110C0412F6D2F88E290E058D097
S11306800AC08AE290E054D0C11105C0412F6D2FF9
S11306908BE290E04DD0DF91CF911F91089581308E
S11306A051F028F0823059F0833069F0089582E2E5
S11306B090E025C0089585E290E021C0089588E285
S11306C090E01DC008958BE290E019C00895813038
S11306D051F028F0823059F0833069F0089582E2B5
S11306E090E019C0089585E290E015C0089588E26D
S11306F090E011C008958BE290E00DC00895FC01D4
S1130700408121E030E002C0220F331F6A95E2F7F6
S1130710242B20830895FC01908121E030E002C065
S1130720220F331F6A95E2F7209529232083089529
S1130730FC01942F208141E050E0062E02C0440FBA
S1130740551F0A94E2F7409550952423492F50E011
S113075002C0440F551F6A95E2F7422B4083089567
S113076090E002C0959587956A95E2F781700895A7
S11307700F9320E041E067E082E054DF20E041E0B5
S113078066E082E04FDF20E041E065E082E04ADF9E
S113079020E041E063E082E045DF00E022E048EB56
S11307A058E860E070E080E020D101E022E048EA0F
S11307B051E660E070E080E018D10F91089567E0A1
S11307C082E06DDF66E082E082DF65E082E07FDF69
S11307D063E082E064DF40E062E088E2E0D141E08F
S11307E062E088E2DCD182E02BC2089582E06FC22D
S11307F00895813099F028F08230E9F0833041F196
S1130800089567E082E04BDF66E082E060DF65E048
S113081082E05DDF63E082E042CF089567E082E03A
S113082056DF66E082E03BDF65E082E038DF63E0CC
S113083082E04DCF089567E082E049DF66E082E020
S11308402EDF65E082E043DF63E082E028CF089595
S113085067E082E024DF66E082E039DF65E082E081
S11308601EDF63E082E033CF0895CF93C82F40E0CA
S113087062E095D141E062E08C2F91D1CF9108954F
S11308801F93CF93DF93162FC42FD22F882319F0F1
S1130890813041F00DC067E082E019DF66E082E05C
S11308A0FEDE06C067E082E0FADE66E082E00FDF8B
S11308B040E062E0812F73D1CC2319F0C13041F0C4
S11308C00DC065E082E003DF63E082E0E8DE06C09D
S11308D065E082E0E4DE63E082E0F9DE41E062E0CC
S11308E08D2F5DD1DF91CF911F910895CF92DF922B
S11308F0EF92FF92CF93DF93EC016A017B012130E9
S113090009F069C060E072E18AE790E0A70196010E
S1130910B7D3DA01C9010197A109B109009721E010
S1130920A207B10528F421E030E03983288356C0BA
S113093060E472E48FE090E0A7019601A1D3DA01AC
S1130940C9010197A109B109009721E0A207B105E6
S113095028F428E030E03983288340C068E478EE46
S113096081E090E0A70196018BD3DA01C9010197D8
S1130970A109B109009721E0A207B10528F420E4F8
S113098030E0398328832AC062E17AE780E090E08E
S1130990A701960175D3DA01C9010197A109B1092B
S11309A0009721E0A207B10528F420E031E0398363
S11309B0288314C080E094E09983888364E87EE10E
S11309C080E090E0A70196015BD3DA01C9010197A9
S11309D0A109B10903C080E090E0DC01DF91CF916F
S11309E0FF90EF90DF90CF9008950F931F93CF93D4
S11309F0DF9300D0CDB7DEB7182F1A8219822130C9
S1130A0021F0223009F481C0C3C021E0CE01019657
S1130A106DDF909387008093860089819A8180346A
S1130A209105B9F030F48130910559F0089769F0D7
S1130A301BC0811521E0920781F08115944089F053
S1130A4013C081E0809318010FC082E080931801E5
S1130A500BC083E08093180107C084E080931801E1
S1130A6003C085E08093180160E080E890E053DEE5
S1130A7061E080E890E043DE64E081E890E03FDEFE
S1130A8063E081E890E03BDE002319F00130F9F0E7
S1130A907FC020E041E065E083E0C4DD67E080E8FA
S1130AA090E02DDE66E080E890E035DEA0918600DF
S1130AB0B0918700212F30E00ED324E630E040E0EF
S1130AC050E0DED2309389002093880061C020E09A
S1130AD041E064E083E0A6DD65E080E890E00FDEBD
S1130AE064E080E890E017DEA0918600B091870072
S1130AF0212F30E0F0D224E630E040E050E0C0D2D4
S1130B0030938B0020938A0043C01092700065E0FC
S1130B1086EB90E000DE63E081EB90E0FCDD61E0D9
S1130B2080EB90E0ECDD60E080EB90E0E8DD81E0DC
S1130B3080931901002319F00130B1F029C020E09D
S1130B4041E067E083E06EDD8FEF189F9001112490
S1130B503695279536952795ABE7B4E1BCD29695A3
S1130B6087958093B30014C020E041E066E083E001
S1130B7059DD8FEF189F90011124369527953695EE
S1130B802795ABE7B4E1A7D2969587958093B400F7
S1130B900F900F90DF91CF911F910F9108956130C5
S1130BA019F0623041F10895442319F0413091F075
S1130BB00895A0918600B0918700282F30E08BD251
S1130BC024E630E040E050E05BD23093890020938B
S1130BD088000895A0918600B0918700282F30E006
S1130BE07AD224E630E040E050E04AD230938B00E1
S1130BF020938A000895442319F0413089F0089520
S1130C009FEF899F90011124369527953695279556
S1130C10ABE7B4E160D2969587958093B3000895CD
S1130C209FEF899F90011124369527953695279536
S1130C30ABE7B4E150D2969587958093B4000895BC
S1130C40813019F08230D1F008954091180142FBAF
S1130C50442740F962E081E890E06ADD40911801A0
S1130C604695417061E081E890E062DD40911801B1
S1130C70417060E081E890E05BCD089540911901F6
S1130C8042FB442740F962E081EB90E051DD409162
S1130C9019014695417061E081EB90E049DD409196
S1130CA01901417060E081EB90E042DD67E080EB88
S1130CB090E025DD66E080EB90E02DDD65E080EBE3
S1130CC090E01DDD64E080EB90E025CD0895813057
S1130CD019F0823071F0089562E081E890E01BDD44
S1130CE061E081E890E017DD60E081E890E013CDF9
S1130CF0089562E081EB90E00EDD61E081EB90E02D
S1130D000ADD60E081EB90E006DDE0EBF0E080815D
S1130D108F70808367E083E0DADC66E083E0D7CC21
S1130D2008951F920F920FB60F9211240BB60F92D3
S1130D302F933F934F935F936F937F938F939F93DF
S1130D40AF93BF93EF93FF938091C60080931A01F2
S1130D50E0911A018E2F90E08033910508F029C1AB
S1130D60FC01EA5BFF4FAEC1109203011092040133
S1130D7010920101109202011092000137DD35DC5E
S1130D802BDC62E080E0A3DC81E0A1DF60E081E0B5
S1130D9086DC61E081E09BDC62E081E098DC09C1F3
S1130DA081E08093030180930101E2DCDEDB81E0DA
S1130DB047DF62E080E073DC60E081E088DC809102
S1130DC00501811107C061E081E069DC62E081E036
S1130DD07EDCEFC061E081E07ADC62E081E05FDC30
S1130DE0E8C010920501E5C081E080930501E1C0EF
S1130DF01092040181E06BDFDCC081E08093040188
S1130E001FDFD7C080910401882309F4D2C041E0D8
S1130E1061E083E0C4DECDC080910401882309F43D
S1130E20C8C041E061E087E0BADEC3C0809104013C
S1130E30882309F4BEC041E061E08CE0B0DEB9C0B3
S1130E4010920101D3DCB5C081E080930101B7DCCD
S1130E5088E28093020180930001ABC0809101017C
S1130E60882309F4A6C08091000190E0209102013A
S1130E70AC01420F511D9A01359527952A502093B4
S1130E800201820F911D95958795865F80930001DD
S1130E90293238F488E28093020182E380930001CE
S1130EA008C0843630F084E6809300018AE580939C
S1130EB002012091000144E06091020184E0E0DC41
S1130EC078C080910101882309F473C080910001E6
S1130ED090E020910201AC01420F511D9A01359519
S1130EE02795265F20930201820F911D9595879582
S1130EF08A5080930001893238F488E2809300019B
S1130F0082E38093020108C0243630F084E68093A3
S1130F1002018AE5809300012091000144E0609180
S1130F20020184E0ADDC45C080910101882309F40D
S1130F3040C080910201843608F03BC090910001CA
S1130F409436B8F5865F80930201965F9093000112
S1130F508CDC2FC080910101882359F1809102011A
S1130F60893238F190910001993218F18A508093B6
S1130F7002019A509093000178DC1BC0809101011A
S1130F808823B9F080E035DC14C080910101882306
S1130F9081F081E02EDC0DC080910101882349F0AD
S1130FA082E027DC06C080910101882311F083E0F0
S1130FB020DCFF91EF91BF91AF919F918F917F9131
S1130FC06F915F914F913F912F910F900BBE0F90B6
S1130FD00FBE0F901F9018950F931F93CF93DF931D
S1130FE0082F162FD42FC22F61E080EC90E093DB02
S1130FF062E081EC90E08FDB62E082EC90E07FDBEA
S113100061E082EC90E07BDB67E082EC90E083DBE4
S1131010402F66E082EC90E08BDB65E082EC90E0B0
S11310206EDB412F64E082EC90E082DB4D2F63E0C5
S113103082EC90E07DDB2C2F30E03093C5002093D0
S1131040C40067E081EC90E05ADBDF91CF911F91FF
S11310500F910895CF93C82F462F64E081EC90E060
S113106067DB4C2F63E081EC90E062DBCF91089565
S1131070E0ECF0E0908195FFFDCF8093C6000895E9
S1131080A1E21A2EAA1BBB1BFD010DC0AA1FBB1F88
S1131090EE1FFF1FA217B307E407F50720F0A21BFA
S11310A0B30BE40BF50B661F771F881F991F1A9467
S11310B069F760957095809590959B01AC01BD0191
S11310C0CF010895EE0FFF1F0024001C0BBE0790F4
S11310D0F691E02D0994A29FB001B39FC001A39F94
S11310E0700D811D1124911DB29F700D811D11245D
S10B10F0911D0895F894FFCF4F
S9030000FC
