S0160000496D706C656D656E746174696F6E2E7372656348
S113000076C0000085C0000083C0000081C00000ED
S1130010BCC100007DC00000DFC1000079C0000049
S113002077C0000075C0000073C0000071C00000FC
S11300306FC000006DC000006BC0000069C000000C
S113004067C0000065C0000063C0000061C000001C
S113005021C600005DC000005BC0000059C0000064
S113006057C0000055C0000053C0000051C000003C
S11300704FC000004DC000004BC0000049C000004C
S113008047C0000045C00000D6C500006D069606B6
S1130090EB07EB07EB07EB07EB07EB07EB07EB07CC
S11300A0B906C206EB07EB07EB07EB07CB06D00656
S11300B0EB07EB07EB07EB07EB07EB07EB07EB07AC
S11300C0D506DF06E906EB07EB07EB07F306F706B1
S11300D001073407EB07EB07EB07EB07EB07EB072D
S11300E067077E079507A707B907C007C707112445
S11300F01FBECFEFD0E4DEBFCDBF21E0A0E0B1E072
S113010001C01D92A831B207E1F759D00C948C08B4
S113011077CF0F931092030181E080930601109230
S11301200401109201011092020110920001109238
S1130130050120E041E060E0D9D120E041E061E048
S113014081E0D4D120E041E062E081E0CFD160E001
S113015081E009D261E081E01ED262E081E01BD23D
S113016020E041E062E082E0C1D162E082E013D2AB
S113017020E040E064E082E0B9D120E041E065E0C5
S113018083E0B4D165E083E006D220E041E062E0A0
S113019080E0ACD162E080E0FED101E021E042E306
S11301A050E060E070E087E0AAD323E341E060E040
S11301B080E024D761E081E05FD70F91089592D168
S11301C0A8DF7894809106018111FECF2FEF80E79C
S11301D092E0215080409040E1F700C000007DD1C2
S11301E0EC0158D78DE056D78AE054D7A09710F485
S11301F080E0C5D262E082E0B6D125E32A95F1F72A
S1130200000062E082E0C7D1DDCFCF9386B164E025
S11302102FD2813021F416BC84E085BD0CC086B198
S113022064E026D2811107C086B590E0909308015E
S11302308093070115BC80B167E01AD2C82F80B142
S113024066E016D240E8C49F9001112440E4849FE4
S1130250C0011124822B80930A0186B161E008D287
S1130260C82F86B160E004D2CC0F8C2B8093090197
S113027030910B012091100180910A0190910901A4
S1130280232B892B82278038A1F48091110190912E
S11302901201A0911301B09114010196A11DB11D89
S11302A08093110190931201A0931301B093140150
S11302B062C030910B012091100180910A0190914C
S11302C00901232B892B82278034A1F48091110109
S11302D090911201A0911301B09114010196A11DF6
S11302E0B11D8093110190931201A0931301B09357
S11302F0140141C030910B012091100180910A0139
S113030090910901232B892B82278230A1F48091BB
S11303100C0190910D01A0910E01B0910F01019675
S1130320A11DB11D80930C0190930D01A0930E01AA
S1130330B0930F0120C030910B01209110018091E6
S11303400A0190910901232B892B8227813099F48A
S113035080910C0190910D01A0910E01B0910F01BB
S11303600196A11DB11D80930C0190930D01A093E2
S11303700E01B0930F0180910A0180930B018091CB
S1130380090180931001CF9108951F920F920FB627
S11303900F9211240BB60F922F933F934F935F93B9
S11303A06F937F938F939F93AF93BF93EF93FF9339
S11303B02CDFFF91EF91BF91AF919F918F917F912E
S11303C06F915F914F913F912F910F900BBE0F90C2
S11303D00FBE0F901F9018951F920F920FB60F9299
S11303E011240BB60F922F933F934F935F936F9308
S11303F07F938F939F93AF93BF93EF93FF9305DF07
S1130400FF91EF91BF91AF919F918F917F916F91E8
S11304105F914F913F912F910F900BBE0F900FBEA4
S11304200F901F90189520E040E067E080E05ED0D8
S113043020E040E066E080E059D020E040E061E068
S113044082E054D020E040E060E082E04FD010929F
S113045011011092120110921301109214011092C2
S11304600A0110920B0110920C0110920D011092CE
S11304700E0110920F011092090110921001EBE687
S1130480F0E08081806C8083EDE6F0E0808187611C
S11304908083089560E088E690E0ADD062E088E66D
S11304A090E0A9C0089560E088E690E0B0D062E0F2
S11304B088E690E0ACC008951092110110921201E8
S11304C0109213011092140110920C0110920D015C
S11304D010920E0110920F010895809107019091DE
S11304E00801089580E885BF85BF08951F93CF93C1
S11304F0DF93D62FC42F122F813089F028F0823059
S1130500C9F0833011F12BC081E290E099D0C11180
S113051026C0412F6D2F82E290E092D020C084E269
S113052090E08ED0C1111BC0412F6D2F85E290E069
S113053087D015C087E290E083D0C11110C0412F4D
S11305406D2F88E290E07CD00AC08AE290E078D0F7
S1130550C11105C0412F6D2F8BE290E071D0DF9166
S1130560CF911F910895813051F028F0823059F0D5
S1130570833069F0089582E290E03DC0089585E2F9
S113058090E039C0089588E290E035C008958BE288
S113059090E031C00895813051F028F0823059F054
S11305A0833069F0089582E290E031C0089585E2D5
S11305B090E02DC0089588E290E029C008958BE270
S11305C090E025C00895813051F028F0823059F030
S11305D0833069F0089582E290E026C0089585E2B0
S11305E090E022C0089588E290E01EC008958BE256
S11305F090E01AC00895FC01408121E030E002C07F
S1130600220F331F6A95E2F7242B20830895FC01FF
S1130610908121E030E002C0220F331F6A95E2F797
S11306202095292320830895FC01408121E030E0B6
S113063002C0220F331F6A95E2F72427208308950E
S1130640FC01942F208141E050E0062E02C0440FAB
S1130650551F0A94E2F7409550952423492F50E002
S113066002C0440F551F6A95E2F7422B4083089558
S113067090E002C0959587956A95E2F78170089598
S11306800F9320E041E067E082E030DF20E041E0CA
S113069066E082E02BDF20E041E065E082E026DFD7
S11306A020E041E063E082E021DF00E022E048EA6C
S11306B051E660E070E080E022D101E022E048EA07
S11306C051E660E070E080E01AD10F91089567E090
S11306D082E049DF66E082E05EDF65E082E05BDFC6
S11306E063E082E040DF40E062E088E2E2D141E0A2
S11306F062E088E2DED182E02DD2CCCE0895D3DE52
S113070082E06FC20895813099F028F08230E9F0D8
S1130710833041F1089567E082E025DF66E082E0FE
S11307203ADF65E082E037DF63E082E01CCF0895C2
S113073067E082E030DF66E082E015DF65E082E0BA
S113074012DF63E082E027CF089567E082E023DFD1
S113075066E082E008DF65E082E01DDF63E082E0BE
S113076002CF089567E082E0FEDE66E082E013DFF8
S113077065E082E0F8DE63E082E00DCF0895CF9378
S1130780C82F40E062E095D141E062E08C2F91D126
S1130790CF9108951F93CF93DF93162FC42FD22F99
S11307A0882319F0813041F00DC067E082E0F3DE68
S11307B066E082E0D8DE06C067E082E0D4DE66E070
S11307C082E0E9DE40E062E0812F73D1CC2319F0AE
S11307D0C13041F00DC065E082E0DDDE63E082E01F
S11307E0C2DE06C065E082E0BEDE63E082E0D3DE06
S11307F041E062E08D2F5DD1DF91CF911F9108958B
S1130800CF92DF92EF92FF92CF93DF93EC016A01D4
S11308107B01213009F069C060E072E18AE790E071
S1130820A70196013FD4DA01C9010197A109B109D1
S1130830009721E0A207B10528F421E030E03983D4
S1130840288356C060E472E48FE090E0A70196012B
S113085029D4DA01C9010197A109B109009721E05E
S1130860A207B10528F428E030E03983288340C08A
S113087068E478EE81E090E0A701960113D4DA01F0
S1130880C9010197A109B109009721E0A207B105A7
S113089028F420E430E0398328832AC062E17AE72F
S11308A080E090E0A7019601FDD3DA01C901019728
S11308B0A109B109009721E0A207B10528F420E0BD
S11308C031E03983288314C080E094E099838883DD
S11308D064E87EE180E090E0A7019601E3D3DA01C9
S11308E0C9010197A109B10903C080E090E0DC01CE
S11308F0DF91CF91FF90EF90DF90CF9008950F9309
S11309001F93CF93DF9300D0CDB7DEB7182F1A8291
S11309101982213021F0223009F481C0C3C021E0C2
S1130920CE0101966DDF90938700809386008981C4
S11309309A8180349105B9F030F48130910559F0F1
S1130940089769F01BC0811521E0920781F0811599
S1130950944089F013C081E0809315010FC082E0B8
S1130960809315010BC083E08093150107C084E0D8
S11309708093150103C085E08093150160E080E851
S113098090E045DE61E080E890E035DE64E081E8F7
S113099090E031DE63E081E890E02DDE002319F081
S11309A00130F9F07FC020E041E065E083E09EDDA6
S11309B067E080E890E01FDE66E080E890E027DEF4
S11309C0A0918600B0918700212F30E096D324E6D1
S11309D030E040E050E066D33093890020938800F3
S11309E061C020E041E064E083E080DD65E080E810
S11309F090E001DE64E080E890E009DEA0918600EA
S1130A00B0918700212F30E078D324E630E040E035
S1130A1050E048D330938B0020938A0043C0109257
S1130A20700065E086EB90E0F2DD63E081EB90E03E
S1130A30EEDD61E080EB90E0DEDD60E080EB90E0F5
S1130A40DADD81E080931601002319F00130B1F062
S1130A5029C020E041E067E083E048DD8FEF189F84
S1130A60900111243695279536952795ABE7B4E187
S1130A7044D3969587958093B30014C020E041E059
S1130A8066E083E033DD8FEF189F900111243695E3
S1130A90279536952795ABE7B4E12FD3969587959F
S1130AA08093B4000F900F90DF91CF911F910F911D
S1130AB00895613019F0623041F10895442319F02A
S1130AC0413091F00895A0918600B0918700282FBD
S1130AD030E013D324E630E040E050E0E3D230933A
S1130AE08900209388000895A0918600B091870022
S1130AF0282F30E002D324E630E040E050E0D2D2A8
S1130B0030938B0020938A000895442319F04130D8
S1130B1089F008959FEF899F9001112436952795B8
S1130B2036952795ABE7B4E1E8D2969587958093FF
S1130B30B30008959FEF899F90011124369527955E
S1130B4036952795ABE7B4E1D8D2969587958093EF
S1130B50B4000895813019F08230D1F008954091A5
S1130B60150142FB442740F962E081E890E068DD2A
S1130B70409115014695417061E081E890E060DDA7
S1130B8040911501417060E081E890E059CD0895ED
S1130B904091160142FB442740F962E081EB90E06A
S1130BA04FDD409116014695417061E081EB90E084
S1130BB047DD40911601417060E081EB90E040DD3B
S1130BC067E080EB90E017DD66E080EB90E01FDDEE
S1130BD065E080EB90E00FDD64E080EB90E017CD02
S1130BE00895813019F0823071F0089562E081E84F
S1130BF090E00DDD61E081E890E009DD60E081E8EE
S1130C0090E005CD089562E081EB90E000DD61E0C5
S1130C1081EB90E0FCDC60E081EB90E0F8DCE0EB61
S1130C20F0E080818F70808367E083E0B4DC66E06D
S1130C3083E0B1CC08951F920F920FB60F92112446
S1130C400BB60F922F933F934F935F936F937F93C2
S1130C508F939F93AF93BF93EF93FF938AE791EEA4
S1130C60909395008093940065E083E0ACDCFF9161
S1130C70EF91BF91AF919F918F917F916F915F9110
S1130C804F913F912F910F900BBE0F900FBE0F907D
S1130C901F9018951F920F920FB60F9211240BB646
S1130CA00F922F933F934F935F936F937F938F9301
S1130CB09F93AF93BF93EF93FF938091C60080936C
S1130CC01701E09117018E2F90E08133910508F010
S1130CD082C1FC01EA5BFF4F07C21092030110922C
S1130CE0040110920101109202011092000107DD2B
S1130CF0E3DBD9DB62E080E04EDC81E072DF60E0C0
S1130D0081E031DC61E081E046DC62E081E043DCEB
S1130D101092050165E083E03EDC1092950010928C
S1130D209400109291001092710055C181E080935B
S1130D3003018093010110920501A2DC74DB81E0C0
S1130D4009DF62E080E00FDC60E081E024DC809178
S1130D500601811107C061E081E005DC62E081E009
S1130D601ADC39C161E081E016DC62E081E0FBDB82
S1130D7032C11092060161E081E0F5DB62E081E0BE
S1130D800ADC29C181E08093060161E004DC62E0B1
S1130D9081E0E9DB20C11092040181E022DF1BC164
S1130DA081E080930401D6DE16C18091040188237A
S1130DB009F411C141E061E083E07BDE0CC1809164
S1130DC00401882309F407C141E061E087E071DE92
S1130DD002C180910401882309F4FDC041E061E06F
S1130DE08CE067DEF8C01092010189DCF4C081E078
S1130DF0809301016CDC88E28093020180930001FE
S1130E00EAC080910101882309F4E5C080910001C2
S1130E1090E020910201AC01420F511D9A013595D9
S1130E2027952A5020930201820F911D959587954D
S1130E30865F80930001293238F488E280930201AE
S1130E4082E38093000108C0843630F084E6809306
S1130E5000018AE5809302012091000144E0609141
S1130E60020184E097DCB7C080910101882309F472
S1130E70B2C08091000190E020910201AC01420FC8
S1130E80511D9A0135952795265F20930201820F03
S1130E90911D959587958A5080930001893238F485
S1130EA088E28093000182E38093020108C0243623
S1130EB030F084E6809302018AE58093000120915A
S1130EC0000144E06091020184E064DC84C080910C
S1130ED00101882309F47FC080910201843608F05F
S1130EE07AC090910001943608F075C0865F8093B3
S1130EF00201965F9093000142DC6DC08091010174
S1130F00882309F468C080910201893208F463C01F
S1130F1090910001993208F45EC08A5080930201D6
S1130F209A50909300012BDC56C0809101018823D4
S1130F3009F451C080E0E7DB2091020180910001B7
S1130F4090E0820F911D9595879519DC44C080919E
S1130F500101882309F43FC081E0D5DB209102011F
S1130F608091000190E0820F911D9595879507DC93
S1130F7032C080910101882371F182E0C4DB2BC06F
S1130F8080910101882339F183E0BDDB24C0809185
S1130F900301882301F18091050181110FC081E0D3
S1130FA0809305012AE731EE309395002093940055
S1130FB08093710084E0809391000DC0109205012C
S1130FC065E083E0E8DA10929500109294001092A4
S1130FD0910010927100FF91EF91BF91AF919F9199
S1130FE08F917F916F915F914F913F912F910F90CE
S1130FF00BBE0F900FBE0F901F9018950F931F9369
S1131000CF93DF93082F162FD42FC22F61E080ECEB
S113101090E0FDDA62E081EC90E0F9DA62E082ECE3
S113102090E0E9DA61E082EC90E0E5DA67E082ECF6
S113103090E0EDDA402F66E082EC90E001DB65E0C1
S113104082EC90E0D8DA412F64E082EC90E0F8DAA8
S11310504D2F63E082EC90E0F3DA2C2F30E03093F4
S1131060C5002093C40067E081EC90E0C4DADF910E
S1131070CF911F910F910895CF93C82F462F64E00D
S113108081EC90E0DDDA4C2F63E081EC90E0D8DA7B
S1131090CF910895E0ECF0E0908195FFFDCF80932F
S11310A0C6000895A1E21A2EAA1BBB1BFD010DC0A8
S11310B0AA1FBB1FEE1FFF1FA217B307E407F50704
S11310C020F0A21BB30BE40BF50B661F771F881FE0
S11310D0991F1A9469F760957095809590959B0176
S11310E0AC01BD01CF010895EE0FFF1F0024001CC9
S11310F00BBE0790F691E02D0994A29FB001B39F17
S1131100C001A39F700D811D1124911DB29F700D0C
S10F1110811D1124911D0895F894FFCF57
S9030000FC
