:1000000045C0000053C0000051C000004FC00000B8
:100010004DC000004BC0000049C0000047C00000B8
:1000200045C0000043C0000041C000003FC00000C8
:100030003DC000003BC0000039C0000037C00000D8
:1000400035C0000033C0000031C000002FC00000E8
:100050002DC000002BC0000029C0000027C00000F8
:1000600025C0000023C0000021C000001FC0000008
:100070001DC000001BC0000019C0000017C0000018
:1000800015C0000013C0000011C0000011241FBEE5
:10009000CFEFD0E4DEBFCDBF21E0A0E0B1E001C0F2
:1000A0001D92A130B207E1F702D070C2A9CF45D0AE
:1000B00020E041E064E080E044D020E041E065E001
:1000C00080E03FD000E021E042E350E060E070E0FB
:1000D00085E054D101E021E042E350E060E070E0CF
:1000E0008CE04CD181E006D264E080E067D065E02E
:1000F00080E07CD02FEF83ED90E321508040904052
:10010000E1F700C0000040E061E08CE0CAD141E0CE
:1001100061E085E0C6D12FEF83ED90E32150804070
:100120009040E1F700C0000040E061E085E0B9D117
:1001300041E061E08CE0B5D1DDCF80E885BF85BFCF
:1001400008951F93CF93DF93D62FC42F122F8130A2
:1001500089F028F08230C9F0833011F12BC081E2A0
:1001600090E075D0C11126C0412F6D2F82E290E042
:100170006ED020C084E290E06AD0C1111BC0412F34
:100180006D2F85E290E063D015C087E290E05FD0EC
:10019000C11110C0412F6D2F88E290E058D00AC0E5
:1001A0008AE290E054D0C11105C0412F6D2F8BE23F
:1001B00090E04DD0DF91CF911F910895813051F0A3
:1001C00028F0823059F0833069F0089582E290E09F
:1001D00025C0089585E290E021C0089588E290E06E
:1001E0001DC008958BE290E019C00895813051F050
:1001F00028F0823059F0833069F0089582E290E06F
:1002000019C0089585E290E015C0089588E290E055
:1002100011C008958BE290E00DC00895FC0140816B
:1002200021E030E002C0220F331F6A95E2F7242B51
:1002300020830895FC01908121E030E002C0220F6C
:10024000331F6A95E2F72095292320830895FC0146
:10025000942F208141E050E0062E02C0440F551F2C
:100260000A94E2F7409550952423492F50E002C0AC
:10027000440F551F6A95E2F7422B40830895CF92B1
:10028000DF92EF92FF92CF93DF93EC016A017B0143
:10029000213009F069C060E072E18AE790E0A701CF
:1002A000960143D1DA01C9010197A109B10900976B
:1002B00021E0A207B10528F421E030E0398328834A
:1002C00056C060E472E48FE090E0A70196012DD162
:1002D000DA01C9010197A109B109009721E0A2073C
:1002E000B10528F428E030E03983288340C068E471
:1002F00078EE81E090E0A701960117D1DA01C901FB
:100300000197A109B109009721E0A207B10528F4DE
:1003100020E430E0398328832AC062E17AE780E074
:1003200090E0A701960101D1DA01C9010197A10965
:10033000B109009721E0A207B10528F420E031E0DF
:100340003983288314C080E094E09983888364E82B
:100350007EE180E090E0A7019601E7D0DA01C901D3
:100360000197A109B10903C080E090E0DC01DF91B1
:10037000CF91FF90EF90DF90CF9008950F931F9350
:10038000CF93DF9300D0CDB7DEB71A821982213028
:1003900009F080C0182FCE01019671DF909387007D
:1003A0008093860029813A8120343105C1F038F4E8
:1003B0002130310561F02830310569F01BC021156D
:1003C00081E0380781F02115344089F013C081E0C5
:1003D000809300010FC082E0809300010BC083E096
:1003E0008093000107C084E08093000103C085E092
:1003F0008093000160E080E890E01CDF61E080E82D
:1004000090E00CDF64E081E890E008DF63E081E8E1
:1004100090E004DF002319F00130F9F03BC020E048
:1004200041E065E083E08DDE67E080E890E0F6DEA5
:1004300066E080E890E0FEDEA0918600B091870043
:10044000212F30E094D024E630E040E050E06DD041
:1004500030938900209388001DC020E041E064E0D3
:1004600083E06FDE65E080E890E0D8DE64E080E85D
:1004700090E0E0DEA0918600B0918700212F30E06F
:1004800076D024E630E040E050E04FD030938B004F
:1004900020938A000F900F90DF91CF911F910F91C1
:1004A0000895613031F5442319F0413091F00895F9
:1004B000A0918600B0918700282F30E058D024E624
:1004C00030E040E050E031D0309389002093880044
:1004D0000895A0918600B0918700282F30E047D082
:1004E00024E630E040E050E020D030938B002093B1
:1004F0008A0008958130C1F44091000142FB4427F5
:1005000040F962E081E890E0A2DE4091000146956A
:10051000417061E081E890E09ADE40910001417015
:1005200060E081E890E093CE0895A1E21A2EAA1B24
:10053000BB1BFD010DC0AA1FBB1FEE1FFF1FA21793
:10054000B307E407F50720F0A21BB30BE40BF50B90
:10055000661F771F881F991F1A9469F76095709519
:10056000809590959B01AC01BD01CF010895A29F9C
:10057000B001B39FC001A39F700D811D1124911D77
:10058000B29F700D811D1124911D0895F894FFCF25
:00000001FF
