:1000000045C0000053C0000051C000004FC00000B8
:100010004DC000004BC0000049C0000047C00000B8
:1000200045C0000043C0000041C000003FC00000C8
:100030003DC000003BC0000039C0000037C00000D8
:1000400035C0000033C0000031C000002FC00000E8
:100050002DC000002BC0000029C0000027C00000F8
:1000600025C0000023C0000021C000001FC0000008
:100070001DC000001BC0000019C0000017C0000018
:1000800015C0000013C0000011C0000011241FBEE5
:10009000CFEFD0E4DEBFCDBF21E0A0E0B1E001C0F2
:1000A0001D92A030B207E1F702D029C1A9CF2DD00F
:1000B00020E041E064E080E02CD020E041E065E019
:1000C00080E027D020E040E060E081E022D064E0E2
:1000D00080E05CD065E080E071D023E340E060E048
:1000E00080E0B5D061E081E0ECD088E78F5FF7D0A9
:1000F0008AE0F5D02FEF80E792E0215080409040D9
:10010000E1F700C00000F3D0F1CF80E885BF85BFE4
:1001100008951F93CF93DF93D62FC42F122F8130D2
:1001200089F028F08230C9F0833011F12BC081E2D0
:1001300090E075D0C11126C0412F6D2F82E290E072
:100140006ED020C084E290E06AD0C1111BC0412F64
:100150006D2F85E290E063D015C087E290E05FD01C
:10016000C11110C0412F6D2F88E290E058D00AC015
:100170008AE290E054D0C11105C0412F6D2F8BE26F
:1001800090E04DD0DF91CF911F910895813051F0D3
:1001900028F0823059F0833069F0089582E290E0CF
:1001A00025C0089585E290E021C0089588E290E09E
:1001B0001DC008958BE290E019C00895813051F080
:1001C00028F0823059F0833069F0089582E290E09F
:1001D00019C0089585E290E015C0089588E290E086
:1001E00011C008958BE290E00DC00895FC0140819C
:1001F00021E030E002C0220F331F6A95E2F7242B82
:1002000020830895FC01908121E030E002C0220F9C
:10021000331F6A95E2F72095292320830895FC0176
:10022000942F208141E050E0062E02C0440F551F5C
:100230000A94E2F7409550952423492F50E002C0DC
:10024000440F551F6A95E2F7422B408308950F93A0
:100250001F93CF93DF93082F162FD42FC22F61E067
:1002600080EC90E0CFDF62E081EC90E0CBDF62E0F9
:1002700082EC90E0BBDF61E082EC90E0B7DF67E00A
:1002800082EC90E0BFDF402F66E082EC90E0C7DFB9
:1002900065E082EC90E0AADF412F64E082EC90E020
:1002A000BEDF4D2F63E082EC90E0B9DF2C2F30E011
:1002B0003093C5002093C400DF91CF911F910F911F
:1002C0000895CF93C82F462F64E081EC90E0A7DF1C
:1002D0004C2F63E081EC90E0A2DFCF910895E0EC39
:1002E000F0E0908195FFFDCF8093C6000895E0EC8B
:1002F000F0E080818823ECF78091C6000895F8949F
:02030000FFCF2D
:00000001FF
