:1000000045C0000053C0000051C000004FC00000B8
:100010001DC100004BC0000040C1000047C00000EF
:1000200045C0000043C0000041C000003FC00000C8
:100030003DC000003BC0000039C0000037C00000D8
:1000400035C0000033C0000031C000002FC00000E8
:1000500002C500002BC0000029C0000027C000001E
:1000600025C0000023C0000021C000001FC0000008
:100070001DC000001BC0000019C0000017C0000018
:1000800015C0000013C0000011C0000011241FBEE5
:10009000CFEFD0E4DEBFCDBF21E0A0E0B1E001C0F2
:1000A0001D92A031B207E1F702D058C5A9CF6ED199
:1000B00000E021E042E350E060E070E084E0DBD269
:1000C00081E004D40DD233D213D149D123E341E0EE
:1000D00060E080E06CD461E081E0A7D47894FFCF49
:1000E000CF93F89480B167E0F3D1C82F80B166E078
:1000F000EFD140E8C49F9001112440E4849FC001E7
:100100001124822B8093030186B161E0E1D1C82FD5
:1001100086B160E0DDD1CC0F8C2B80930201309151
:100120000401209109018091030190910201232B88
:10013000892B82278038A1F480910A0190910B01CC
:10014000A0910C01B0910D010196A11DB11D8093EC
:100150000A0190930B01A0930C01B0930D0162C0B2
:1001600030910401209109018091030190910201D5
:10017000232B892B82278034A1F480910A0190914E
:100180000B01A0910C01B0910D010196A11DB11DB3
:1001900080930A0190930B01A0930C01B0930D0181
:1001A00041C0309104012091090180910301909197
:1001B0000201232B892B82278230A1F48091050133
:1001C00090910601A0910701B09108010196A11D2F
:1001D000B11D8093050190930601A0930701B09390
:1001E000080120C030910401209109018091030190
:1001F00090910201232B892B8227813099F48091E1
:10020000050190910601A0910701B09108010196A6
:10021000A11DB11D8093050190930601A0930701D4
:10022000B093080180910301809304018091020141
:100230008093090180910A0190910B01A0910C011A
:10024000B0910D0100D47894CF9108951F920F9230
:100250000FB60F9211240BB60F922F933F934F932B
:100260005F936F937F938F939F93AF93BF93EF931E
:10027000FF9336DFFF91EF91BF91AF919F918F91E7
:100280007F916F915F914F913F912F910F900BBE96
:100290000F900FBE0F901F9018951F920F920FB6E0
:1002A0000F9211240BB60F922F933F934F935F93AE
:1002B0006F937F938F939F93AF93BF93EF93FF932E
:1002C0000FDF62E08BE390E0D2D0FF91EF91BF911E
:1002D000AF919F918F917F916F915F914F913F91DE
:1002E0002F910F900BBE0F900FBE0F901F9018957F
:1002F00020E040E067E080E04DD020E040E066E0B4
:1003000080E048D020E040E061E082E043D020E09F
:1003100040E060E082E03ED010920A0110920B01B2
:1003200010920C0110920D01109203011092040121
:100330001092050110920601109207011092080117
:100340001092020110920901EBE6F0E08081806CCE
:100350008083EDE6F0E0808183608083089560E033
:1003600088E690E084C0089560910A0170910B01C5
:1003700080910C0190910D0108956091050170919B
:1003800006018091070190910801089580E885BFDA
:1003900085BF08951F93CF93DF93D62FC42F122FBD
:1003A000813089F028F08230C9F0833011F12BC000
:1003B00081E290E075D0C11126C0412F6D2F82E2FD
:1003C00090E06ED020C084E290E06AD0C1111BC0E2
:1003D000412F6D2F85E290E063D015C087E290E059
:1003E0005FD0C11110C0412F6D2F88E290E058D02E
:1003F0000AC08AE290E054D0C11105C0412F6D2F90
:100400008BE290E04DD0DF91CF911F910895813024
:1004100051F028F0823059F0833069F0089582E27B
:1004200090E025C0089585E290E021C0089588E21B
:1004300090E01DC008958BE290E019C008958130CE
:1004400051F028F0823059F0833069F0089582E24B
:1004500090E019C0089585E290E015C0089588E203
:1004600090E011C008958BE290E00DC00895FC016A
:10047000408121E030E002C0220F331F6A95E2F78D
:10048000242B20830895FC01908121E030E002C0FC
:10049000220F331F6A95E2F72095292320830895C0
:1004A000FC01942F208141E050E0062E02C0440F51
:1004B000551F0A94E2F7409550952423492F50E0A8
:1004C00002C0440F551F6A95E2F7422B40830895FE
:1004D00090E002C0959587956A95E2F7817008953E
:1004E0000F9320E041E067E082E054DF20E041E04C
:1004F00066E082E04FDF20E041E065E082E04ADF35
:1005000020E041E063E082E045DF00E022E048EBEC
:1005100058E860E070E080E0AED001E022E048EA18
:1005200051E660E070E080E0A6D00F91089567E0AA
:1005300082E085DF66E082E06ADF65E082E07FDFFF
:1005400063E082E064DF40E062E084E16ED141E09C
:1005500062E084E16AD182E0B9C1089582E0FDC120
:100560000895CF93C82F40E062E05FD141E062E0A0
:100570008C2F5BD1CF910895CF92DF92EF92FF92B3
:10058000CF93DF93EC016A017B01213009F069C050
:1005900060E072E18AE790E0A7019601AED2DA014D
:1005A000C9010197A109B109009721E0A207B1058E
:1005B00028F421E030E03983288356C060E472E4F7
:1005C0008FE090E0A701960198D2DA01C901019766
:1005D000A109B109009721E0A207B10528F428E09C
:1005E00030E03983288340C068E478EE81E090E011
:1005F000A701960182D2DA01C9010197A109B109C7
:10060000009721E0A207B10528F420E430E0398307
:1006100028832AC062E17AE780E090E0A701960192
:100620006CD2DA01C9010197A109B109009721E053
:10063000A207B10528F420E031E03983288314C0F3
:1006400080E094E09983888364E87EE180E090E034
:10065000A701960152D2DA01C9010197A109B10996
:1006600003C080E090E0DC01DF91CF91FF90EF903C
:10067000DF90CF9008950F931F93CF93DF9300D017
:10068000CDB7DEB7182F1A821982213021F022301F
:1006900009F481C0C3C021E0CE0101966DDF9093C3
:1006A00087008093860089819A8180349105B9F012
:1006B00030F48130910559F0089769F01BC081151D
:1006C00021E0920781F08115944089F013C081E008
:1006D00080930E010FC082E080930E010BC083E077
:1006E00080930E0107C084E080930E0103C085E073
:1006F00080930E0160E080E890E0C5DE61E080E874
:1007000090E0B5DE64E081E890E0B1DE63E081E88E
:1007100090E0ADDE002319F00130F9F07FC020E059
:1007200041E065E083E036DE67E080E890E09FDE50
:1007300066E080E890E0A7DEA0918600B091870097
:10074000212F30E0FCD124E630E040E050E0D5D16C
:10075000309389002093880061C020E041E064E08C
:1007600083E018DE65E080E890E081DE64E080E808
:1007700090E089DEA0918600B0918700212F30E0C3
:10078000DED124E630E040E050E0B7D130938B007A
:1007900020938A0043C01092700065E086EB90E0E1
:1007A00072DE63E081EB90E06EDE61E080EB90E072
:1007B0005EDE60E080EB90E05ADE81E080930F0126
:1007C000002319F00130B1F029C020E041E067E0DA
:1007D00083E0E0DD8FEF189F900111243695279577
:1007E00036952795ABE7B4E1AAD196958795809386
:1007F000B30014C020E041E066E083E0CBDD8FEF82
:10080000189F900111243695279536952795ABE7CB
:10081000B4E195D1969587958093B4000F900F9091
:10082000DF91CF911F910F910895613019F06230DF
:1008300041F10895442319F0413091F00895A091B9
:100840008600B0918700282F30E079D124E630E08F
:1008500040E050E052D13093890020938800089501
:10086000A0918600B0918700282F30E068D124E65F
:1008700030E040E050E041D130938B0020938A007B
:100880000895442319F0413089F008959FEF899F1E
:10089000900111243695279536952795ABE7B4E15D
:1008A0004ED1969587958093B30008959FEF899FC9
:1008B000900111243695279536952795ABE7B4E13D
:1008C0003ED1969587958093B4000895813019F0B4
:1008D0008230D1F0089540910E0142FB442740F947
:1008E00062E081E890E0DCDD40910E0146954170C8
:1008F00061E081E890E0D4DD40910E01417060E05C
:1009000081E890E0CDCD089540910F0142FB44274E
:1009100040F962E081EB90E0C3DD40910F01469524
:10092000417061E081EB90E0BBDD40910F014170CF
:1009300060E081EB90E0B4DD67E080EB90E097DD74
:1009400066E080EB90E09FDD65E080EB90E08FDD7E
:1009500064E080EB90E097CD0895813019F082300B
:1009600071F0089562E081E890E08DDD61E081E85A
:1009700090E089DD60E081E890E085CD089562E057
:1009800081EB90E080DD61E081EB90E07CDD60E078
:1009900081EB90E078DDE0EBF0E080818F70808388
:1009A00067E083E04CDD66E083E049CD08950F9376
:1009B0001F93CF93DF93082F162FD42FC22F61E000
:1009C00080EC90E060DD62E081EC90E05CDD62E074
:1009D00082EC90E04CDD61E082EC90E048DD67E085
:1009E00082EC90E050DD402F66E082EC90E058DD34
:1009F00065E082EC90E03BDD412F64E082EC90E02A
:100A00004FDD4D2F63E082EC90E04ADD2C2F30E08B
:100A10003093C5002093C40067E081EC90E027DDAF
:100A2000DF91CF911F910F910895CF93C82F462F3B
:100A300064E081EC90E034DD4C2F63E081EC90E0E9
:100A40002FDDCF910895E0ECF0E0908195FFFDCF90
:100A50008093C60008951F920F920FB60F92112433
:100A60000BB60F922F933F934F935F936F937F93A8
:100A70008F939F93AF93BF93EF93FF938091C600A3
:100A80008093010180910101813311F48EE169DDD0
:100A900080910101823311F48CE363DD80910101C7
:100AA000833311F48AE55DDD80910101843309F41B
:100AB00055DD80910101853309F439DD55DC609302
:100AC000000180910001BFDF58DC6093000180913C
:100AD0000001B9DFFF91EF91BF91AF919F918F918D
:100AE0007F916F915F914F913F912F910F900BBE2E
:100AF0000F900FBE0F901F901895A1E21A2EAA1BFF
:100B0000BB1BFD010DC0AA1FBB1FEE1FFF1FA217BD
:100B1000B307E407F50720F0A21BB30BE40BF50BBA
:100B2000661F771F881F991F1A9469F76095709543
:100B3000809590959B01AC01BD01CF010895A29FC6
:100B4000B001B39FC001A39F700D811D1124911DA1
:100B5000B29F700D811D1124911D0895F894FFCF4F
:00000001FF
