:1000000045C0000061C000005FC000005DC000008E
:100010005BC000009FC0000057C0000055C000003A
:1000200053C0000051C000004FC000004DC0000090
:100030004BC0000049C0000047C0000045C00000A0
:1000400043C0000041C000003FC000003DC00000B0
:10005000DFC7000039C0000037C0000035C0000015
:1000600033C0000031C000002FC000002DC00000D0
:100070002BC0000029C0000027C0000025C00000E0
:1000800023C0000021C0000020C0000011241FBEBA
:10009000CFEFD0E4DEBFCDBF13E0A0E0B1E0E0EAF7
:1000A000F3E100E00BBF02C007900D92A236B1074A
:1000B000D9F723E0A2E6B3E001C01D92AB37B20747
:1000C000E1F786D20C94CE099BCF1F920F920FB608
:1000D0000F9211240BB60F922F933F934F935F9380
:1000E0006F937F938F939F93AF93BF93EF93FF9300
:1000F0008DEE95E8909395008093940081E0809335
:10010000620380917303813091F480916403909134
:1001100065038115914359F480E0DDD29093750316
:10012000809374038091740390917503E6D4FF91DA
:10013000EF91BF91AF919F918F917F916F915F915F
:100140004F913F912F910F900BBE0F900FBE0F90CC
:100150001F9018951F920F920FB60F9211240BB695
:100160000F922F933F934F935F936F937F938F9350
:100170009F93AF93BF93EF93FF938091620381307E
:1001800009F0A8C180917303811156C08091680362
:100190008130B9F028F0823029F18330A1F149C0D3
:1001A00083B160E0F0D6811109C0809168038F5F50
:1001B0008093680364E080E08AD33BC010926803B8
:1001C00038C083B161E0DFD6811109C08091680336
:1001D0008F5F8093680364E080E079D32AC0109237
:1001E000680327C083B162E0CED6811109C0809137
:1001F00068038F5F8093680364E080E068D319C070
:100200001092680316C083B163E0BDD681110FC0A0
:1002100081E08093730373D380E091E052D419D4CA
:1002200089E091E04ED464E080E051D302C01092A6
:100230006803109262034EC180916403909165033C
:10024000892BC1F480916703811114C083B160E0F0
:100250009AD6811135C18091640390916503905FB6
:100260009093650380936403809167038F5F80930D
:10027000670326C183B163E086D681112DC08091CA
:100280006703813019F0823099F01AC180916403BC
:10029000909165038115904109F412C18091640326
:1002A000909165039051909365038093640308C116
:1002B000809164039091650388279F708115914018
:1002C00009F4FEC080916403909165039A95909320
:1002D000650380936403F4C083B162E054D6811156
:1002E00067C080916703813019F0823099F0E8C0CF
:1002F00080916403909165038115904409F4E0C0F6
:100300008091640390916503905F9093650380935F
:100310006403D6C080916403909165038827907F21
:10032000811520E29207E1F0811520E4920761F146
:100330008115904109F0C4C08091640390916503D8
:1003400088279F708115934009F4BAC08091640397
:100350009091650393959093650380936403B0C077
:10036000809164039091650388279F708115924066
:1003700009F4A6C0809164039091650393959093CE
:100380006503809364039CC080916403909165032E
:1003900088279F7081159A4009F492C08091640368
:1003A000909165039395909365038093640388C04F
:1003B00083B161E0E8D5811126C080916703815047
:1003C0008093670380916703813041F018F0823099
:1003D00081F076C0109265031092640380916403EB
:1003E000909165038827907F9093650380936403C1
:1003F00067C080916403909165038827909365039B
:10040000809364035DC083B160E0BDD5811158C0A5
:10041000809167038F5F80936703809167038230C9
:1004200079F08330B9F0813009F04AC080916403DB
:1004300090916503905F909365038093640340C03F
:1004400080916403909165039395909365038093E5
:10045000640336C0809164039091650381159142D5
:1004600049F481E080937703809167038150809302
:10047000670326C0809164039091650381159242C1
:1004800041F4109277038091670381508093670352
:1004900017C080916403909165038115914139F0F3
:1004A00080916403909165038115924149F4809194
:1004B0006403909165034096909365038093640371
:1004C0008091640390916503C1D364E080E0FFD123
:1004D00010926203FF91EF91BF91AF919F918F9125
:1004E0007F916F915F914F913F912F910F900BBE34
:1004F0000F900FBE0F901F901895CF9336D282E1C8
:1005000091E0DFD210927303C1E0C09362031092B6
:100510006803109265031092640310926703C093FE
:10052000770380E190E090936A038093690321E070
:1005300040E060E081E05ED121E040E061E081E008
:1005400059D121E040E062E081E054D121E040E077
:1005500063E081E04FD18FE080936C0010929000B7
:1005600010929200C093710061E088E690E0CED4D2
:1005700020E041E064E080E03DD120E040E060E048
:1005800080E038D140E064E080E026D0ECE6F3E0A3
:1005900083E793E01192E817F907E1F781E0809390
:1005A0006B038BE693E062D084E0809391008DEE44
:1005B00095E8909395008093940023E341E060E0F8
:1005C00080E06CD561E081E0AFD5C3D0CF910895D4
:1005D0000DD193DF7894FFCF1F93CF93DF93182F24
:1005E000C62FD42F67E08CE790E09CD466E08CE7C0
:1005F00090E08CD4412F65E08CE790E0ACD464E0CF
:100600008CE790E08FD463E08CE790E08BD4C2FB62
:10061000442740F962E08AE790E09DD4C1FB44277B
:1006200040F961E08AE790E096D44C2F417060E099
:100630008AE790E090D4D11105C065E08AE790E0A8
:1006400071D410C065E08AE790E060D462E08BE787
:1006500090E068D461E08BE790E064D460E08BE7E1
:1006600090E060D4DF91CF911F910895EF92FF92B7
:100670000F931F93CF93DF93D82FC92F67E08AE79B
:1006800090E044D40D2F1C2FC0E0D0E0EE24E39482
:10069000F12CF80141918F01B7010C2E02C0660FB9
:1006A000771F0A94E2F78EE790E055D42196C83080
:1006B000D10579F780917A0065E065D4882321F02F
:1006C00066E08AE790E022D4DF91CF911F910F91ED
:1006D000FF90EF900895ECE7F0E09081987F892BF0
:1006E000808380917A0065E04ED481110AC066E073
:1006F0008AE790E00BD4EAE7F0E0808184FFFDCF49
:1007000012C064E08AE790E001D4EAE7F0E080817B
:1007100084FFFDCF64E08AE790E0F8D3EAE7F0E0F9
:10072000808184FFFDCF80917C0065E02CD48823FC
:1007300031F0813059F48091790090E008958091F2
:1007400078002091790090E0922B089580E090E06D
:10075000089521D44DC40895CF93DF93C82FD92F86
:1007600064E081E09CD083E051D48D2F4FD48C2F56
:100770004DD449D4C82F64E081E079D08C2FDF912B
:10078000CF9108951F93CF93DF93C82FD62F172FA4
:1007900064E081E084D086E039D464E081E067D011
:1007A0008FE19EE40197F1F700C0000064E081E072
:1007B00076D082E02BD4812F29D48D2F27D48C2F73
:1007C00025D464E081E053D08FE19EE40197F1F7F6
:1007D00000C0000064E081E062D084E017D464E0EF
:1007E00081E045D0DF91CF911F91089580E885BFCA
:1007F00085BF08951F93CF93DF93D62FC42F122F59
:10080000813089F028F08230C9F0833011F12BC09B
:1008100081E290E0A0D3C11126C0412F6D2F82E26A
:1008200090E099D320C084E290E095D3C1111BC021
:10083000412F6D2F85E290E08ED315C087E290E0C6
:100840008AD3C11110C0412F6D2F88E290E083D36D
:100850000AC08AE290E07FD3C11105C0412F6D2FFD
:100860008BE290E078D3DF91CF911F910895813092
:1008700051F028F0823059F0833069F0089582E217
:1008800090E044C3089585E290E040C3089588E273
:1008900090E03CC308958BE290E038C30895813026
:1008A00051F028F0823059F0833069F0089582E2E7
:1008B00090E038C3089585E290E034C3089588E25B
:1008C00090E030C308958BE290E02CC3089581300E
:1008D00051F028F0823059F0833069F0089582E2B7
:1008E00090E02DC3089585E290E029C3089588E241
:1008F00090E025C308958BE290E021C3089565E060
:1009000083E0CDDF66E083E0CADF81E088B964E0A0
:1009100083E0ADDF8FE097E20197F1F700C00000C0
:1009200064E083E0BCDF8FE097E20197F1F700C05D
:100930000000089565E083E0B2DF66E083E0AFDFAA
:1009400080E888B964E083E092DF8FE097E2019766
:10095000F1F700C0000064E083E0A1DF8FE097E2E0
:100960000197F1F700C000000895CF93C4E020E0A4
:1009700041E06C2F83E03EDF6C2F83E090DFCF5FA0
:10098000C730A9F7C0E020E041E06C2F82E032DF01
:100990006C2F82E084DFCF5FC830A9F72FEF89E6A4
:1009A00098E1215080409040E1F700C00000A7DFAF
:1009B00065E083E074DF66E083E071DF88E388B997
:1009C00064E083E054DF8FE097E20197F1F700C025
:1009D000000064E083E063DF8FE097E20197F1F7C6
:1009E00000C0000065E083E05ADF66E083E057DF87
:1009F0008DE088B964E083E03ADF8FE097E2019709
:100A0000F1F700C0000064E083E049DF8FE097E287
:100A10000197F1F700C0000065E083E040DF66E089
:100A200083E03DDF84E188B964E083E020DF8FE08C
:100A300097E20197F1F700C0000064E083E02FDF48
:100A40008FE097E20197F1F700C0000073DFCF91CC
:100A5000089565E083E023DF66E083E020DF80EC3B
:100A600088B964E083E003DF8FE097E20197F1F754
:100A700000C0000064E083E012DF8FE097E201979E
:100A8000F1F700C000000895CF93C82F65E083E020
:100A900006DF66E083E0EBDEC8B964E083E0E7DE12
:100AA0008FE097E20197F1F700C0000064E083E077
:100AB000F6DE8FE097E20197F1F700C00000CF91DA
:100AC00008950F931F93CF93DF93FC0101900020B3
:100AD000E9F73197E81BF90B1E161F064CF4EC01E1
:100AE0008C010E0F1F1F8991CFDFC017D107D9F7D7
:100AF000DF91CF911F910F910895CF92DF92EF92E6
:100B0000FF92BC0180E090E049D329E533E64DE84F
:100B100050E4D2D317D36B017C01709379036093B7
:100B20007803EDDE07DF82E291E0CBDF92DF2091F8
:100B30007803309179033695279536952795369524
:100B40002795A5ECB0E21BD4929582958F708927EA
:100B50009F708927805D98DF960136952795369599
:100B6000279536952795A5ECB0E209D49295829504
:100B70008F7089279F70892748EE53E0849F9001EA
:100B8000859F300D949F300D1124C601821B930B5D
:100B900090937903809378038EE276DF2091780337
:100BA000309179033695279536952795ABE7B4E1D3
:100BB000E6D396958795805D67DF960136952795F4
:100BC00036952795ABE7B4E1DAD39C0136952795A6
:100BD00044E6429FC001439F900D11249601281BBB
:100BE000390B3093790320937803ADECBCECC7D379
:100BF000969587959695879596958795805D44DF20
:100C00009601ADECBCECBBD39695879596958795F0
:100C1000969587959C01220F331F880F991F880F87
:100C2000991F880F991F820F931F9601281B390B5C
:100C3000C9013093790320937803805D25DF86E531
:100C400023DFFF90EF90DF90CF900895CF93DF9355
:100C5000811521E3920709F4F5C0A0F5811522E181
:100C6000920709F4ADC0A0F4811520E1920709F4C0
:100C70006CC020F4892B09F45FC045C1811521E1C6
:100C8000920709F486C08031914109F48BC03BC1C1
:100C9000811521E2920709F4A5C050F4811523E1E2
:100CA000920709F496C08115904209F457C02BC1F0
:100CB000811522E2920709F4ADC08115904309F431
:100CC00056C021C1811525E4920709F4E7C0D0F48C
:100CD000811522E4920709F4C6C050F4811520E47E
:100CE000920709F44DC08115914409F4B3C00BC1BA
:100CF000811523E4920709F4BFC08115944409F4D7
:100D0000C4C001C1811528E4920709F4E2C050F47F
:100D1000811526E4920709F4CAC08115974409F4A5
:100D2000CFC0F1C0811529E4920709F4DBC0811519
:100D30009A4409F4E0C0E7C0E2DD80E091E0C1DE62
:100D400088DE89E091E0BDDEDEC0D9DD85E391E09B
:100D5000B8DE7FDE8FE391E0B4DED5C0D0DD8AE47B
:100D600091E0AFDE76DE84E591E0ABDECCC0C7DD9E
:100D70008FE391E0A6DE6DDE8FE591E0A2DEC3C0D9
:100D8000BEDD8EE691E09DDE64DE8DE791E099DECA
:100D9000BAC0B5DD8AE891E094DE5BDE88E991E0D7
:100DA00090DEB1C0ACDD84EA91E08BDEC0E1D0E042
:100DB000CE01D2DC69DE2196CA31D105C9F7A3C0C4
:100DC0009EDD8BEA91E07DDE44DE89EB91E079DE09
:100DD0009AC095DD88E991E074DE3BDE85EC91E018
:100DE00070DE91C08CDD80917703882359F08130CB
:100DF00009F089C083ED91E064DE2BDE83EE91E0A3
:100E000060DE81C084EF91E05CDE23DE84E092E06E
:100E100058DE79C074DD80917703882359F08130E2
:100E200009F071C085E192E04CDE13DE85E292E0CC
:100E300048DE69C086E392E044DE0BDE86E492E0A1
:100E400040DE61C080E047DC9093750380937403BB
:100E500054DE59C054DD87E592E033DEFADD85E6E5
:100E600092E02FDE50C04BDD83E792E02ADEF1DD19
:100E700081E892E026DE47C042DD85E692E021DE91
:100E8000E8DD8FE892E01DDE3EC039DD8DE992E0BD
:100E900018DEDFDD8BEA92E014DE35C030DD89EB51
:100EA00092E00FDED6DD87EC92E00BDE2CC027DD72
:100EB00085ED92E006DECDDD83EE92E002DE23C01A
:100EC0001EDD81EF92E0FDDDC4DD8FEF92E0F9DD04
:100ED0001AC015DD8DE093E0F4DDBBDD8BE193E01E
:100EE000F0DD11C00CDD89E293E0EBDDB2DD87E3DC
:100EF00093E0E7DD08C003DD85E493E0E2DDA9DDF2
:100F000083E593E0DEDDDF91CF910895FC01408120
:100F100021E030E002C0220F331F6A95E2F7242B54
:100F200020830895FC01908121E030E002C0220F6F
:100F3000331F6A95E2F72095292320830895FC0149
:100F4000408121E030E002C0220F331F6A95E2F7B2
:100F5000242720830895FC01942F208141E050E054
:100F6000062E02C0440F551F0A94E2F74095509593
:100F70002423492F50E002C0440F551F6A95E2F721
:100F8000422B4083089590E002C0959587956A951D
:100F9000E2F78170089564E08CE490E0B7DF64E0EC
:100FA00084E290E0B3DF65E084E290E0AFDF67E0E9
:100FB00084E290E0ABDF66E084E290E0B3DF65E0DE
:100FC0008CE490E0AFDF63E08CE490E0ABDF62E0C4
:100FD0008CE490E0A7DF60E08CE490E0A3DF60E0C9
:100FE0008CE490E09FDF61E08CE490E09BCF08957B
:100FF00066E08CE490E08ACF08958EBD0DB407FEC4
:10100000FDCF8EB5089580E0F8CF0895F6CF08950E
:101010001F920F920FB60F9211240BB60F922F93BF
:101020003F934F935F936F937F938F939F93AF9370
:10103000BF93EF93FF938091C60080937A036091F2
:10104000690370916A0380917A039CDB8091690344
:1010500090916A03019690936A038093690380914B
:10106000690390916A034A9731F480E190E090938C
:101070006A0380936903FF91EF91BF91AF919F91B4
:101080008F917F916F915F914F913F912F910F9031
:101090000BBE0F900FBE0F901F9018950F931F93CC
:1010A000CF93DF93082F162FD42FC22F61E08AE24F
:1010B00090E02CDF60E08AE290E034DF61E080ECD9
:1010C00090E030DF62E081EC90E02CDF62E082ECC7
:1010D00090E01CDF61E082EC90E018DF67E082ECDA
:1010E00090E020DF402F66E082EC90E034DF65E0A6
:1010F00082EC90E00BDF412F64E082EC90E02BDF8C
:101100004D2F63E082EC90E026DF2C2F30E030930F
:10111000C5002093C40067E081EC90E0F7DEDF912A
:10112000CF911F910F910895CF93C82F462F64E060
:1011300081EC90E010DF4C2F63E081EC90E00BDF5E
:10114000CF91089598D088F09F5790F0B92F9927A4
:10115000B751A0F0D1F0660F771F881F991F1AF0C2
:10116000BA95C9F712C0B13081F09FD0B1E00895AF
:101170009CC0672F782F8827B85F39F0B93FCCF330
:10118000869577956795B395D9F73EF490958095B8
:10119000709561957F4F8F4F9F4F0895E89409C0D8
:1011A00097FB3EF490958095709561957F4F8F4F9A
:1011B0009F4F9923A9F0F92F96E9BB279395F695B0
:1011C000879577956795B795F111F8CFFAF4BB0F2E
:1011D00011F460FF1BC06F5F7F4F8F4F9F4F16C092
:1011E000882311F096E911C0772321F09EE8872F1C
:1011F000762F05C0662371F096E8862F70E060E0D8
:101200002AF09A95660F771F881FDAF7880F969550
:10121000879597F9089597F99F6780E870E060E0F7
:1012200008959FEF80EC089500240A94161617067F
:1012300018060906089500240A94121613061406C7
:1012400005060895092E0394000C11F4882352F02A
:10125000BB0F40F4BF2B11F460FF04C06F5F7F4FE2
:101260008F4F9F4F089557FD9058440F551F59F0C9
:101270005F3F71F04795880F97FB991F61F09F3F83
:1012800079F087950895121613061406551FF2CFAC
:101290004695F1DF08C0161617061806991FF1CFFC
:1012A00086957105610508940895E894BB27662723
:1012B0007727CB0197F908950BD0C4CFB5DF28F07D
:1012C000BADF18F0952309F0A6CFABCF1124EECFEB
:1012D000CADFA0F3959FD1F3950F50E0551F629F91
:1012E000F001729FBB27F00DB11D639FAA27F00D7F
:1012F000B11DAA1F649F6627B00DA11D661F829FA6
:101300002227B00DA11D621F739FB00DA11D621F8A
:10131000839FA00D611D221F749F3327A00D611DA7
:10132000231F849F600D211D822F762F6A2F112489
:101330009F5750408AF0E1F088234AF0EE0FFF1FDC
:10134000BB1F661F771F881F91505040A9F79E3F13
:10135000510570F060CFAACF5F3FECF3983EDCF30D
:10136000869577956795B795F795E7959F5FC1F750
:10137000FE2B880F911D9695879597F90895A29F4A
:10138000B001B39FC001A39F700D811D1124911D59
:10139000B29F700D811D1124911D0895F894FFCF07
:1013A00057656C636F6D6521005072657373204FD4
:1013B0004B00456E7465722070617373776F726451
:1013C0003A003130626974207265736F6C757469AC
:1013D0006F6E3A20003E312E4D6573616A650020C4
:1013E000322E436F6E74726F6C0020312E4D657318
:1013F000616A65003E322E436F6E74726F6C003E00
:10140000332E54656D70657261747572610020339E
:101410002E54656D7065726174757261003E342E74
:10142000496E756E6461746969003E312E312E4ECD
:10143000656369746974650020312E322E436974C6
:1014400069746500312E312E312E0020312E312E5F
:101450004E65636974697465003E312E322E4369AE
:1014600074697465003E312E332E5374657267655E
:101470007265003E322E312E4D616E75616C205BBF
:10148000785D0020322E322E4175746F6D617420AC
:101490005B205D003E322E312E4D616E75616C20F9
:1014A0005B205D0020322E322E4175746F6D6174A9
:1014B000205B785D0020322E312E4D616E75616C9F
:1014C000205B785D003E322E322E4175746F6D6167
:1014D00074205B205D0020322E312E4D616E7561CF
:1014E0006C205B205D003E322E322E4175746F6D94
:1014F0006174205B785D003E342E312E4E6F206586
:1015000076656E740020342E322E4E6F206576651F
:101510006E740020342E312E4E6F206576656E7409
:10152000003E342E322E4E6F206576656E74003E7E
:10153000342E332E4E6F206576656E740020342E67
:10154000332E4E6F206576656E74003E342E342E39
:101550004E6F206576656E740020342E342E4E6FEB
:10156000206576656E74003E342E352E4E6F2065F4
:1015700076656E740020342E352E4E6F20657665AC
:101580006E74003E342E362E4E6F206576656E7476
:101590000020342E362E4E6F206576656E74003E28
:1015A000342E372E4E6F206576656E740020342EF3
:1015B000372E4E6F206576656E74003E342E382EC1
:1015C0004E6F206576656E740020342E382E4E6F77
:1015D000206576656E74003E342E392E4E6F206580
:1015E00076656E740020342E392E4E6F2065766538
:1015F0006E74003E342E31302E4E6F206576656E4F
:02160000740074
:00000001FF
