S0160000496D706C656D656E746174696F6E2E7372656348
S113000076C0000085C0000083C0000081C00000ED
S1130010F5C100007DC0000018C2000079C00000D6
S113002077C0000075C0000073C0000071C00000FC
S11300306FC000006DC000006BC0000069C000000C
S113004067C0000065C0000063C0000061C000001C
S11300505AC600005DC000005BC0000059C000002B
S113006057C0000055C0000053C0000051C000003C
S11300704FC000004DC000004BC0000049C000004C
S113008047C0000045C000000FC60000A606CF060A
S113009044084408440844084408440844084408FC
S11300A0F206FB0644084408440844080407090708
S11300B044084408440844084408440844084408DC
S11300C00E07180722074408440844082C07300781
S11300D03A07730744084408440844084408440899
S11300E0AC07C907E607F8070A0815082008112411
S11300F01FBECFEFD0E4DEBFCDBF21E0A0E0B1E072
S113010001C01D92AC31B207E1F761D00C94E5084F
S113011077CF0F931092030181E080930A0110922C
S11301200501109201011092020110920001109237
S11301300601109204011092070110920801109216
S1130140090120E041E060E00AD220E041E061E002
S113015081E005D220E041E062E081E000D260E08D
S113016081E03AD261E081E04FD262E081E04CD29A
S113017020E041E062E082E0F2D162E082E044D239
S113018020E040E064E082E0EAD120E041E065E084
S113019083E0E5D165E083E037D220E041E062E02E
S11301A080E0DDD162E080E02FD201E021E042E393
S11301B050E060E070E087E0DBD323E341E060E0FF
S11301C080E075D761E081E0B0D70F910895C3D185
S11301D0A0DF789411E080910A018111FCCF2FEF08
S11301E081EE94E0215080409040E1F700C000008F
S11301F01093040162E082E0EFD125E32A95F1F740
S1130200000062E082E000D28FE19EE40197F1F702
S113021000C000009BD1EC0196D7A09710F480E0B9
S1130220E7D210920401D7CFCF93809104018823A1
S113023031F186B164E055D2813069F480910701CF
S1130240811109C081E0809308018093070116BCE5
S113025084E085BD14C086B164E043D281110FC02F
S113026080910701813059F410920801109207011E
S113027086B590E090930C0180930B0115BC80B17E
S113028067E02FD2C82F80B166E02BD240E8C49F2C
S11302909001112440E4849FC0011124822B809397
S11302A00E0186B161E01DD2C82F86B160E019D27B
S11302B0CC0F8C2B80930D0130910F0120911401F0
S11302C080910E0190910D01232B892B8227803878
S11302D0A1F48091150190911601A0911701B0919C
S11302E018010196A11DB11D80931501909316016B
S11302F0A0931701B093180162C030910F012091AF
S1130300140180910E0190910D01232B892B8227DA
S11303108034A1F48091150190911601A0911701E8
S1130320B09118010196A11DB11D80931501909300
S11303301601A0931701B093180141C030910F0129
S11303402091140180910E0190910D01232B892B92
S113035082278230A1F48091100190911101A09123
S11303601201B09113010196A11DB11D80931001DA
S113037090931101A0931201B093130120C0309106
S11303800F012091140180910E0190910D01232BF6
S1130390892B8227813099F4809110019091110169
S11303A0A0911201B09113010196A11DB11D80937A
S11303B0100190931101A0931201B0931301809145
S11303C00E0180930F0180910D018093140180919F
S11303D00901882389F08091150190911601A0915B
S11303E01701B0911801853F9140A105B10520F096
S11303F080E0FED110920901CF9108951F920F92CF
S11304000FB60F9211240BB60F922F933F934F9375
S11304105F936F937F938F939F93AF93BF93EF9368
S1130420FF9302DFFF91EF91BF91AF919F918F9165
S11304307F916F915F914F913F912F910F900BBEE0
S11304400F900FBE0F901F9018951F920F920FB62A
S11304500F9211240BB60F922F933F934F935F93F8
S11304606F937F938F939F93AF93BF93EF93FF9378
S1130470DBDEFF91EF91BF91AF919F918F917F91BF
S11304806F915F914F913F912F910F900BBE0F9001
S11304900FBE0F901F90189520E040E067E080E0C9
S11304A05ED020E040E066E080E059D020E040E00B
S11304B061E082E054D020E040E060E082E04FD090
S11304C01092150110921601109217011092180142
S11304D010920E0110920F0110921001109211014E
S11304E0109212011092130110920D011092140136
S11304F0EBE6F0E08081806C8083EDE6F0E08081C3
S113050087618083089560E088E690E0ADD062E082
S113051088E690E0A9C0089560E088E690E0B0D055
S113052062E088E690E0ACC0089510921501109244
S113053016011092170110921801109210011092D6
S113054011011092120110921301089580910B0170
S113055090910C01089580E885BF85BF08951F938D
S1130560CF93DF93D62FC42F122F813089F028F038
S11305708230C9F0833011F12BC081E290E099D030
S1130580C11126C0412F6D2F82E290E092D020C08D
S113059084E290E08ED0C1111BC0412F6D2F85E203
S11305A090E087D015C087E290E083D0C11110C0DD
S11305B0412F6D2F88E290E07CD00AC08AE290E05F
S11305C078D0C11105C0412F6D2F8BE290E071D01E
S11305D0DF91CF911F910895813051F028F082303E
S11305E059F0833069F0089582E290E03DC00895A7
S11305F085E290E039C0089588E290E035C008951E
S11306008BE290E031C00895813051F028F08230BF
S113061059F0833069F0089582E290E031C0089582
S113062085E290E02DC0089588E290E029C0089505
S11306308BE290E025C00895813051F028F082309B
S113064059F0833069F0089582E290E026C008955D
S113065085E290E022C0089588E290E01EC00895EB
S11306608BE290E01AC00895FC01408121E030E063
S113067002C0220F331F6A95E2F7242B20830895CA
S1130680FC01908121E030E002C0220F331F6A9503
S1130690E2F72095292320830895FC01408121E07D
S11306A030E002C0220F331F6A95E2F7242720832B
S11306B00895FC01942F208141E050E0062E02C0F1
S11306C0440F551F0A94E2F7409550952423492F6F
S11306D050E002C0440F551F6A95E2F7422B408355
S11306E0089590E002C0959587956A95E2F7817028
S11306F008950F9320E041E067E082E030DF20E0DE
S113070041E066E082E02BDF20E041E065E082E04A
S113071026DF20E041E063E082E021DF00E022E028
S113072048EA51E660E070E080E022D101E022E096
S113073048EA51E660E070E080E01AD10F91089534
S113074067E082E049DF66E082E05EDF65E082E048
S11307505BDF63E082E040DF40E062E088E2E2D118
S113076041E062E088E2DED182E02DD2CCCE089571
S1130770D3DE82E06FC20895813099F028F0823090
S1130780E9F0833041F1089567E082E025DF66E017
S113079082E03ADF65E082E037DF63E082E01CCF8D
S11307A0089567E082E030DF66E082E015DF65E00F
S11307B082E012DF63E082E027CF089567E082E001
S11307C023DF66E082E008DF65E082E01DDF63E0AE
S11307D082E002CF089567E082E0FEDE66E082E018
S11307E013DF65E082E0F8DE63E082E00DCF089578
S11307F0CF93C82F40E062E095D141E062E08C2FB6
S113080091D1CF9108951F93CF93DF93162FC42FC7
S1130810D22F882319F0813041F00DC067E082E0C7
S1130820F3DE66E082E0D8DE06C067E082E0D4DE74
S113083066E082E0E9DE40E062E0812F73D1CC2300
S113084019F0C13041F00DC065E082E0DDDE63E007
S113085082E0C2DE06C065E082E0BEDE63E082E0E4
S1130860D3DE41E062E08D2F5DD1DF91CF911F9106
S11308700895CF92DF92EF92FF92CF93DF93EC0132
S11308806A017B01213009F069C060E072E18AE706
S113089090E0A70196015FD4DA01C9010197A1098B
S11308A0B109009721E0A207B10528F421E030E066
S11308B03983288356C060E472E48FE090E0A70196
S11308C0960149D4DA01C9010197A109B109009738
S11308D021E0A207B10528F428E030E03983288319
S11308E040C068E478EE81E090E0A701960133D43B
S11308F0DA01C9010197A109B109009721E0A20712
S1130900B10528F420E430E0398328832AC062E169
S11309107AE780E090E0A70196011DD4DA01C901CD
S11309200197A109B109009721E0A207B10528F4B4
S113093020E031E03983288314C080E094E0998377
S1130940888364E87EE180E090E0A701960103D407
S1130950DA01C9010197A109B10903C080E090E05F
S1130960DC01DF91CF91FF90EF90DF90CF9008955D
S11309700F931F93CF93DF9300D0CDB7DEB7182F1B
S11309801A821982213021F0223009F481C0C3C0B7
S113099021E0CE0101966DDF90938700809386005D
S11309A089819A8180349105B9F030F481309105C0
S11309B059F0089769F01BC0811521E0920781F076
S11309C08115944089F013C081E0809319010FC010
S11309D082E0809319010BC083E08093190107C062
S11309E084E08093190103C085E08093190160E0DD
S11309F080E890E045DE61E080E890E035DE64E088
S1130A0081E890E031DE63E081E890E02DDE0023B0
S1130A1019F00130F9F07FC020E041E065E083E0A7
S1130A209EDD67E080E890E01FDE66E080E890E00D
S1130A3027DEA0918600B0918700212F30E0B6D345
S1130A4024E630E040E050E086D3309389002093E0
S1130A50880061C020E041E064E083E080DD65E07F
S1130A6080E890E001DE64E080E890E009DEA09197
S1130A708600B0918700212F30E098D324E630E03F
S1130A8040E050E068D330938B0020938A0043C049
S1130A901092700065E086EB90E0F2DD63E081EB9C
S1130AA090E0EEDD61E080EB90E0DEDD60E080EB85
S1130AB090E0DADD81E080931A01002319F001301F
S1130AC0B1F029C020E041E067E083E048DD8FEF2A
S1130AD0189F900111243695279536952795ABE7F5
S1130AE0B4E164D3969587958093B30014C020E055
S1130AF041E066E083E033DD8FEF189F900111241D
S1130B003695279536952795ABE7B4E14FD396955F
S1130B1087958093B4000F900F90DF91CF911F9130
S1130B200F910895613019F0623041F10895442322
S1130B3019F0413091F00895A0918600B09187009A
S1130B40282F30E033D324E630E040E050E003D3F4
S1130B5030938900209388000895A0918600B09175
S1130B608700282F30E022D324E630E040E050E034
S1130B70F2D230938B0020938A000895442319F015
S1130B80413089F008959FEF899F90011124369593
S1130B90279536952795ABE7B4E108D396958795C5
S1130BA08093B30008959FEF899F90011124369597
S1130BB0279536952795ABE7B4E1F8D296958795B6
S1130BC08093B4000895813019F08230D1F00895F3
S1130BD04091190142FB442740F962E081E890E02A
S1130BE068DD409119014695417061E081E890E02B
S1130BF060DD40911901417060E081E890E059CDD9
S1130C00089540911A0142FB442740F962E081EBC8
S1130C1090E04FDD40911A014695417061E081EB0F
S1130C2090E047DD40911A01417060E081EB90E073
S1130C3040DD67E080EB90E017DD66E080EB90E05C
S1130C401FDD65E080EB90E00FDD64E080EB90E079
S1130C5017CD0895813019F0823071F0089562E063
S1130C6081E890E00DDD61E081E890E009DD60E07D
S1130C7081E890E005CD089562E081EB90E000DD2D
S1130C8061E081EB90E0FCDC60E081EB90E0F8DC7B
S1130C90E0EBF0E080818F70808367E083E0B4DC78
S1130CA066E083E0B1CC08951F920F920FB60F92C5
S1130CB011240BB60F922F933F934F935F936F932F
S1130CC07F938F939F93AF93BF93EF93FF938AE7A1
S1130CD091EE909395008093940065E083E0ACDC02
S1130CE0FF91EF91BF91AF919F918F917F916F9100
S1130CF05F914F913F912F910F900BBE0F900FBEBC
S1130D000F901F9018951F920F920FB60F921124F7
S1130D100BB60F922F933F934F935F936F937F93F1
S1130D208F939F93AF93BF93EF93FF938091C600EC
S1130D3080931B01E0911B018E2F90E0813391057C
S1130D4008F0A2C1FC01EA5BFF4F27C21092030125
S1130D5010920501109201011092020110920001FB
S1130D6007DDE3DBD9DB62E080E04EDC81E072DFAB
S1130D7060E081E031DC61E081E046DC62E081E05A
S1130D8043DC1092060165E083E03EDC109295009E
S1130D9010929400109291001092710075C181E03C
S1130DA0809303018093010110920601A2DC74DB9D
S1130DB081E009DF62E080E00FDC60E081E024DCB8
S1130DC080910A01811107C061E081E005DC62E0E5
S1130DD081E01ADC59C161E081E016DC62E081E067
S1130DE0FBDB52C110920A0161E081E0F5DB62E0B5
S1130DF081E00ADC49C181E080930A0161E004DCFE
S1130E0062E081E0E9DB40C11092050181E022DF6C
S1130E103BC181E080930501D6DE36C18091050196
S1130E20882309F431C141E061E083E07BDE2CC119
S1130E3080910501882309F427C141E061E087E03E
S1130E4071DE22C180910501882309F41DC141E0AE
S1130E5061E08BE067DE18C11092010189DC14C1E6
S1130E6081E0809301016CDC88E28093020180932D
S1130E7000010AC180910101882309F405C1209170
S1130E8002018091000190E0820F911D9595879554
S1130E90855080930201209102018091000190E02D
S1130EA0820F911D959587958B5F809300018091AA
S1130EB00201893230F488E2809302018DE280934A
S1130EC0000180910001843630F084E680930001B3
S1130ED08FE580930201209100016091020144E0BA
S1130EE084E091DCD1C080910101882309F4CCC055
S1130EF0209102018091000190E0820F911D95954F
S1130F0087958B5F809302012091020180910001FB
S1130F1090E0820F911D95958795855080930001EF
S1130F2080910001893230F488E2809300018DE2DF
S1130F308093020180910201843630F084E680932C
S1130F4002018FE58093000120910001609102016C
S1130F5044E084E058DC98C080910101882309F4BE
S1130F6093C080910201843608F08EC08091000104
S1130F70843608F089C080910201865F8093020163
S1130F8080910001865F809300018091020130DC32
S1130F907BC080910101882309F476C0809102010D
S1130FA0893208F471C080910001893208F46CC060
S1130FB0809102018A5080930201809100018A503D
S1130FC0809300018091020113DC5EC080910101D5
S1130FD0882309F459C080E0CFDB2091020180917D
S1130FE0000190E0820F911D9595879501DC4CC01E
S1130FF080910101882309F447C081E0BDDB209181
S113100002018091000190E0820F911D95958795D2
S1131010EFDB3AC0809101018823B1F186DA82E0E6
S1131020ABDB81E0809309012FC08091010188230B
S113103059F17BDA83E0A0DB81E08093090124C0CD
S113104080910301882301F18091060181110FC071
S113105081E0809306012AE731EE309395002093D6
S113106094008093710084E0809391000DC01092ED
S1131070060165E083E0C8DA1092950010929400AE
S11310801092910010927100FF91EF91BF91AF9176
S11310909F918F917F916F915F914F913F912F918C
S11310A00F900BBE0F900FBE0F901F9018950F93CB
S11310B01F93CF93DF93082F162FD42FC22F61E0F5
S11310C080EC90E0DDDA62E081EC90E0D9DA62E075
S11310D082EC90E0C9DA61E082EC90E0C5DA67E086
S11310E082EC90E0CDDA402F66E082EC90E0E1DA29
S11310F065E082EC90E0B8DA412F64E082EC90E0A5
S1131100D8DA4D2F63E082EC90E0D3DA2C2F30E074
S11311103093C5002093C40067E081EC90E0A4DA2A
S1131120DF91CF911F910F910895CF93C82F462F30
S113113064E081EC90E0BDDA4C2F63E081EC90E058
S1131140B8DACF910895E0ECF0E0908195FFFDCFFF
S11311508093C6000895A1E21A2EAA1BBB1BFD01B1
S11311600DC0AA1FBB1FEE1FFF1FA217B307E40782
S1131170F50720F0A21BB30BE40BF50B661F771FDA
S1131180881F991F1A9469F76095709580959095BA
S11311909B01AC01BD01CF010895EE0FFF1F002498
S11311A0001C0BBE0790F691E02D0994A29FB0019C
S11311B0B39FC001A39F700D811D1124911DB29F87
S11111C0700D811D1124911D0895F894FFCF28
S9030000FC
