:1000000045C0000060C000005EC000005CC0000091
:100010005AC0000058C0000056C0000054C0000084
:1000200052C0000050C000004EC000004CC0000094
:100030004AC0000048C0000046C0000044C00000A4
:1000400042C0000040C000003EC000003CC00000B4
:100050003AC0000038C0000036C0000034C00000C4
:1000600032C0000030C000002EC000002CC00000D4
:100070002AC0000028C0000026C0000024C00000E4
:1000800022C0000020C000001EC0000011241FBEBE
:10009000CFEFD0E4DEBFCDBF11E0A0E0B1E0E0E9FA
:1000A000F6E000E00BBF02C007900D92A830B10748
:1000B000D9F721E0A8E0B1E001C01D92A930B20754
:1000C000E1F702D0E3C29CCFCF93DF93CDB7DEB789
:1000D00028970FB6F894DEBF0FBECDBF00E021E039
:1000E00042E350E060E070E085E0BED101E021E055
:1000F00042E350E060E070E08CE0B6D181E07AD27B
:1001000081B1806381B988E0E0E0F1E0DE01119621
:1001100001900D928A95E1F740E061E081E034D0F2
:10012000CE0101967BD02FEF83ED90E321508040EC
:100130009040E1F700C0000040E061E08CE025D293
:1001400041E061E085E021D280E09DD0853610F06D
:10015000149A01C014982FEF83ED90E32150804052
:100160009040E1F700C0000040E061E085E00DD282
:1001700041E061E08CE009D281E085D0873910F060
:10018000159AD1CF1598CFCF1F93CF93DF93182F08
:10019000C62FD42F67E08CE790E0BFD066E08CE7F5
:1001A00090E0AFD0412F65E08CE790E0C3D064E0F1
:1001B0008CE790E0B2D063E08CE790E0AED0C2FB79
:1001C000442740F962E08AE790E0B4D0C1FB4427BD
:1001D00040F961E08AE790E0ADD04C2F417060E0DB
:1001E0008AE790E0A7D0D11105C065E08AE790E0EA
:1001F00094D010C065E08AE790E083D062E08BE79E
:1002000090E08BD061E08BE790E087D060E08BE7F7
:1002100090E083D0DF91CF911F910895EF92FF92EC
:100220000F931F93CF93DF93D82FC92F67E08AE7EF
:1002300090E067D00D2F1C2FC0E0D0E0EE24E394B7
:10024000F12CF80141918F01B7010C2E02C0660F0D
:10025000771F0A94E2F78EE790E06CD02196C830C1
:10026000D10579F780917A0065E07CD0882321F070
:1002700066E08AE790E045D0DF91CF911F910F9122
:10028000FF90EF900895ECE7F0E09081987F892B44
:10029000808380917A0065E065D081110AC066E0B4
:1002A0008AE790E02ED0EAE7F0E0808184FFFDCF7E
:1002B00012C064E08AE790E024D0EAE7F0E08081B1
:1002C00084FFFDCF64E08AE790E01BD0EAE7F0E02E
:1002D000808184FFFDCF80917C0065E043D088233E
:1002E00031F0813059F48091790090E00895809147
:1002F00078002091790090E0922B089580E090E0C2
:100300000895FC01408121E030E002C0220F331F3C
:100310006A95E2F7242B20830895FC01908121E067
:1003200030E002C0220F331F6A95E2F7209529239F
:1003300020830895FC01942F208141E050E0062E97
:1003400002C0440F551F0A94E2F7409550952423AC
:10035000492F50E002C0440F551F6A95E2F7422B27
:100360004083089590E002C0959587956A95E2F7DD
:1003700081700895CF92DF92EF92FF92CF93DF9337
:10038000EC016A017B01213009F054C060E072E1A8
:100390008AE790E0A701960148D1DA01C9010197E7
:1003A000A109B109009721E0A207B10508F448C0EE
:1003B00060E472E48FE090E0A701960136D1DA01A3
:1003C000C9010197A109B109009721E0A207B10570
:1003D000D0F168E478EE81E090E0A701960125D1A4
:1003E000DA01C9010197A109B109009721E0A2072B
:1003F000B10560F162E17AE780E090E0A701960143
:1004000014D1DA01C9010197A109B109009721E0CE
:10041000A207B105F0F064E87EE180E090E0A7017A
:10042000960103D1DA01C9010197A109B10920E0C0
:1004300034E011C020E030E080E090E0DC010BC04F
:1004400021E030E008C028E030E005C020E430E0E2
:1004500002C020E031E039832883DF91CF91FF9003
:10046000EF90DF90CF9008950F931F93CF93DF937A
:1004700000D0CDB7DEB71A821982213009F07EC0D4
:10048000182FCE01019676DF909387008093860027
:1004900029813A8120343105C1F038F42130310509
:1004A00061F02830310569F01BC0211581E0380763
:1004B00081F02115344089F013C081E08093080158
:1004C0000FC082E0809308010BC083E08093080195
:1004D00007C084E08093080103C085E08093080191
:1004E00061E080E890E00DDF64E081E890E009DF02
:1004F00063E081E890E005DF002319F0013001F1AD
:100500003DC067E080E890E0FCDE66E080E890E0D7
:1005100004DF8091860090918700189F9001199FB9
:10052000300D11243695279536952795ABE7B4E124
:100530009ED09695879590938900809388001EC0E1
:1005400065E080E890E0DDDE64E080E890E0E5DEF4
:100550008091860090918700189F9001199F300D1F
:1005600011243695279536952795ABE7B4E17FD0D2
:100570009695879590938B0080938A000F900F90AB
:10058000DF91CF911F910F910895613091F5442330
:1005900019F04130C1F008954091860050918700D4
:1005A000849F9001859F300D1124369527953695AF
:1005B0002795ABE7B4E15BD096958795909389003A
:1005C0008093880008954091860050918700849F11
:1005D0009001859F300D11243695279536952795E6
:1005E000ABE7B4E144D09695879590938B008093C8
:1005F0008A0008958130C1F44091080142FB4427EC
:1006000040F962E081E890E095DE4091080146956E
:10061000417061E081E890E08DDE40910801417019
:1006200060E081E890E086CE0895A1E21A2EAA1B30
:10063000BB1BFD010DC0AA1FBB1FEE1FFF1FA21792
:10064000B307E407F50720F0A21BB30BE40BF50B8F
:10065000661F771F881F991F1A9469F76095709518
:10066000809590959B01AC01BD01CF010895A29F9B
:10067000B001B39FC001A39F700D811D1124911D76
:10068000B29F700D811D1124911D0895F894FFCF24
:08069000010100000000000060
:00000001FF
