:1000000045C0000061C000005FC000005DC000008E
:100010005BC0000081C1000057C0000055C0000057
:1000200053C0000051C000004FC000004DC0000090
:100030004BC0000049C0000047C0000045C00000A0
:1000400043C0000041C000003FC000003DC00000B0
:100050000C94301C39C0000037C0000035C00000CF
:1000600033C0000031C000002FC000002DC00000D0
:100070002BC0000029C0000027C0000025C00000E0
:1000800023C0000021C0000020C0000011241FBEBA
:10009000CFEFD0E4DEBFCDBF13E0A0E0B1E0E4E4F9
:1000A000FDE300E00BBF02C007900D92A834B1073A
:1000B000D9F723E0A8E4B3E001C01D92AC39B20740
:1000C000E1F74BD50C94A01E9BCF1F920F920FB659
:1000D0000F9211240BB60F920F931F932F933F9300
:1000E0004F935F936F937F938F939F93AF93BF9340
:1000F000CF93DF93EF93FF938DEE95E89093950068
:100100008093940080916A038F5F80936A0380914B
:100110006A038C3398F010926A03E0E0F1E0818189
:100120008F5F81838C3350F080818F5F8083118259
:10013000883120F0108282818F5F828381E08093FA
:10014000490380918103813009F0CFC08091480339
:100150008130A9F51092480380E093D590938303F2
:1001600080938203609182037091830380E090E02A
:100170000E94881D29EF33EE4FE850E40E94161EBE
:100180000E945C1D709383036093820380918203BD
:10019000909183038E5E92402AE030E0B9010E9484
:1001A000791ECB014996B9010E94791EC82F80E3C0
:1001B000860F0E94281C80E38C0F0E94281C8091CF
:1001C0006103909162038115914361F480E059D5F8
:1001D00090938303809382038091820390918303A1
:1001E00087D718C08091610390916203892B91F4A5
:1001F00080916303813071F480E043D59093830351
:1002000080938203809182039091830360E071E088
:100210000E94561A81E035D5909367038093660358
:1002200080916603909167038137910508F451C06E
:100230008091650381114DC081E080936503E09159
:10024000550391E09E0F90935503F0E0E459FC4F65
:100250008083C0E0D1E004E011E0609184037091FC
:100260008503899170D580918403909185030196CF
:100270009093850380938403C017D10771F7809111
:1002800055038A3010F010925503809184039091A9
:100290008503807F9F709093850380938403809172
:1002A0008403909185034096909385038093840303
:1002B0008091840390918503803B924030F080E1EF
:1002C00092E0909385038093840386E60E94281C25
:1002D0000CC08091660390916703409730F4809141
:1002E0006503813011F410926503FF91EF91DF9166
:1002F000CF91BF91AF919F918F917F916F915F91BE
:100300004F913F912F911F910F910F900BBE0F9026
:100310000FBE0F901F9018951F920F920FB60F925D
:1003200011240BB60F920F931F932F933F934F936C
:100330005F936F937F938F939F93AF93BF93CF936D
:10034000DF93EF93FF9380914903813009F049C314
:100350008091810381115AC0809169038130C1F07D
:1003600028F0823039F18330B9F14DC083B160E0BB
:100370000E948F1B811109C0809169038F5F809358
:10038000690364E080E09AD53EC0109269033BC0E7
:1003900083B161E00E948F1B811109C080916903C4
:1003A0008F5F8093690364E080E088D52CC0109251
:1003B000690329C083B162E00E948F1B811109C0CB
:1003C000809169038F5F8093690364E080E076D554
:1003D0001AC01092690317C083B163E00E948F1B9B
:1003E00081110FC081E08093810384D585E091E085
:1003F00063D62AD68EE091E05FD664E080E05ED5D9
:1004000002C01092690310924903EBC2809161030C
:1004100090916203892BC9F480916803811115C002
:1004200083B160E00E948F1B8111C0C28091610383
:1004300090916203905F9093620380936103809137
:1004400068038F5F80936803B1C283B163E00E9449
:100450008F1B81116DC0809168038230B9F08330A9
:1004600049F1813009F0A2C2809161039091620349
:100470008115904109F49AC28091610390916203C1
:100480009051909362038093610390C280916103C5
:100490009091620388279F708115914009F486C26C
:1004A00080916103909162039A9590936203809387
:1004B00061037CC280916103909162038827907FE1
:1004C0008115904109F072C280916103909162039D
:1004D00088279F70811531E0930721F081159240A4
:1004E000A1F064C28091610390916203807F99279B
:1004F000409709F45BC28091610390916203409739
:10050000909362038093610351C280916103909143
:100510006203807F9927409709F448C28091610364
:1005200090916203409790936203809361033EC26F
:1005300083B162E00E948F1B8111AAC08091680381
:100540008230C1F0833009F463C0813009F02EC2DB
:1005500080916103909162038115904409F426C251
:100560008091610390916203905F90936203809306
:1005700061031CC280916103909162038827907F80
:10058000811520E29207E1F0811530E4930761F1D3
:100590008115904109F00AC2809161039091620334
:1005A00088279F708115934009F400C280916103F0
:1005B0009091620393959093620380936103F6C1D7
:1005C000809161039091620388279F70811592400A
:1005D00009F4ECC18091610390916203939590932B
:1005E000620380936103E2C1809161039091620391
:1005F00088279F7081159A4009F4D8C180916103C2
:100600009091620393959093620380936103CEC1AE
:1006100080916103909162038827907F81159041BA
:1006200009F0C4C1809161039091620388279F7093
:10063000811531E0930721F081159240A9F0B6C1F0
:100640008091610390916203807F9927803A9105A0
:1006500009F4ACC18091610390916203409690933C
:10066000620380936103A2C1809161039091620350
:10067000807F9927803A910509F498C180916103A0
:1006800090916203409690936203809361038EC1C0
:1006900083B161E00E948F1B811129C080916803A2
:1006A00081508093680380916803813059F018F07D
:1006B000823099F07BC1109262031092610381E055
:1006C0008093630380916103909162038827907FF8
:1006D000909362038093610369C18091610390915B
:1006E0006203882790936203809361035FC183B1A3
:1006F00060E00E948F1B811159C1809168038F5F58
:1007000080936803809168038230B1F018F48130DF
:1007100039F04CC18330D1F0843009F46AC046C14D
:100720008091610390916203905F90936203809344
:100730006103109263033AC1809161039091620357
:100740009395909362038093610330C1809161031C
:10075000909162038115914249F481E0809387036F
:100760008091680381508093680320C18091610368
:10077000909162038115924241F410928703809117
:10078000680381508093680311C180916103909147
:1007900062038115914139F0809161039091620368
:1007A0008115924151F480916103909162034096CA
:1007B0009093620380936103F9C0809161039091EB
:1007C00062038827907F8115904409F0EFC08091E3
:1007D00061039091620388279F70EFEFE90FF0E0CB
:1007E000E459FC4F10828091680381508093680324
:1007F000DDC080916803815080936803809161031C
:100800009091620388278115914109F0A8C08091D9
:10081000610390916203807F9927929582958F70F2
:1008200089279F708927815090E0FC01E55BFC4F90
:1008300010822BE060E171E0E0919503F091960366
:10084000E07FFF277097F295E295EF70EF27FF703A
:10085000EF27E95AFC4F30813323C1F040919503D3
:1008600050919603405F5F4F5093960340939503DA
:100870004091950350919603403B514020F0709376
:100880009603609395032150B9F698C0829592958E
:10089000907F9827807F98278C01005F1F4FEC0185
:1008A0006D96C80136D260919503709196034BD234
:1008B000809195039091960301969093960380936F
:1008C000950380919503909196038F7099270D97CA
:1008D00050F08091950390919603807F9F70909344
:1008E0009603809395030F5F1F4F0C171D07C9F6E2
:1008F000E0919503F0919603E07FFF277097F295C2
:10090000E295EF70EF27FF70EF27E95AFC4F81E087
:1009100080838091950390919603807F9F7040968D
:1009200090939603809395038091950390919603FD
:10093000803B914030F080E191E09093960380936A
:100940009503D8D287E191E0B7D33FEF89E698E1EC
:10095000315080409040E1F700C0000027C08091F6
:10096000610390916203882781159241F9F4809187
:10097000610390916203807F9927929582958F7091
:1009800089279F708927EFEFE80FF0E0E95AFC4FC5
:100990001082B0D284E291E08FD33FEF89E698E1F4
:1009A000315080409040E1F700C000008091610329
:1009B00090916203CFD31092490313C0FC01E55B11
:1009C000FC4F21E0208396D281E391E075D32FEF95
:1009D00039E688E1215030408040E1F700C0000056
:1009E000E5CFFF91EF91DF91CF91BF91AF919F91B3
:1009F0008F917F916F915F914F913F912F911F91B7
:100A00000F910F900BBE0F900FBE0F901F90189577
:100A1000CF93A6D28DE391E04FD310928103C1E032
:100A2000C09349031092690310926203109261030C
:100A300010926803C093870380E190E0909377035E
:100A40008093760380E191E09093960380939503E1
:100A500080E192E0909385038093840321E040E05D
:100A600060E081E0AED121E040E061E081E0A9D129
:100A700021E040E062E081E0A4D121E040E063E0D9
:100A800081E09FD18FE080936C00109290001092D3
:100A90009200C093710061E088E690E00E94521BD2
:100AA00020E041E064E080E08CD120E040E060E0C4
:100AB00080E087D140E064E080E053D0EAE7F3E0F3
:100AC00081E893E011928E179F07E1F7E9E7F3E0E1
:100AD00081E080838183CF019BD084E0809391006B
:100AE0008DEE95E8909395008093940029E141E084
:100AF00060E080E00E94D41B61E081E00E941A1C4B
:100B000003D180E090E020E2FC01E857FC4F208315
:100B10008A30910564F4FC01E55BFC4F1082FC0116
:100B2000E95AFC4F1082FC01E459FC4F10820196F7
:100B30008D30910549F710924A0310926303109289
:100B400065031092780310926B0310926A0310925F
:100B5000550310924803CF9108952FD159DF78940F
:100B6000FFCF1F93CF93DF93182FC62FD42F67E0AB
:100B70008CE790E00E945E1B66E08CE790E00E94AC
:100B8000521B412F65E08CE790E00E94771B64E0E8
:100B90008CE790E00E945E1B63E08CE790E00E948F
:100BA0005E1BC2FB442740F962E08AE790E00E94A6
:100BB000771BC1FB442740F961E08AE790E00E947F
:100BC000771B4C2F417060E08AE790E00E94771B12
:100BD000D11106C065E08AE790E00E945E1B14C058
:100BE00065E08AE790E00E94521B62E08BE790E0AC
:100BF0000E945E1B61E08BE790E00E945E1B60E05C
:100C00008BE790E00E945E1BDF91CF911F910895CA
:100C1000EF92FF920F931F93CF93DF93D82FC92F9B
:100C200067E08AE790E00E94521B0D2F1C2FC0E066
:100C3000D0E0EE24E394F12CF80141918F01B7014B
:100C40000C2E02C0660F771F0A94E2F78EE790E041
:100C50000E94771B2196C830D10571F780917A00E8
:100C600065E00E948F1B882329F066E08AE790E008
:100C70000E94521BDF91CF911F910F91FF90EF9037
:100C80000895ECE7F0E09081987F892B8083809134
:100C90007A0065E00E948F1B81110BC066E08AE735
:100CA00090E00E94521BEAE7F0E0808184FFFDCFD4
:100CB00014C064E08AE790E00E94521BEAE7F0E08B
:100CC000808184FFFDCF64E08AE790E00E94521BA0
:100CD000EAE7F0E0808184FFFDCF80917C0065E051
:100CE0000E948F1B882331F0813059F48091790064
:100CF00090E00895809178002091790090E0922B07
:100D0000089580E090E008950E94971B0C94C41B06
:100D10000895CF93DF93C82FD92F64E081E0B2D03C
:100D200083E00E94D21B8D2F0E94D21B8C2F0E9429
:100D3000D21B0E94CF1BC82F64E081E087D08C2F8C
:100D4000DF91CF9108951F93CF93DF93C82FD62FB4
:100D5000172F64E081E096D086E00E94D21B64E009
:100D600081E074D08FE19EE40197F1F700C00000AC
:100D700064E081E087D082E00E94D21B812F0E9434
:100D8000D21B8D2F0E94D21B8C2F0E94D21B64E09D
:100D900081E05CD08FE19EE40197F1F700C0000094
:100DA00064E081E06FD084E00E94D21B64E081E0C7
:100DB0004DD0DF91CF911F91089580E885BF85BF09
:100DC00008951F93CF93DF93D62FC42F122F813016
:100DD00099F028F08230E9F0833041F133C081E2AC
:100DE00090E00E94771BC1112DC0412F6D2F82E230
:100DF00090E00E94771B26C084E290E00E94771B5F
:100E0000C11120C0412F6D2F85E290E00E94771B19
:100E100019C087E290E00E94771BC11113C0412FD7
:100E20006D2F88E290E00E94771B0CC08AE290E070
:100E30000E94771BC11106C0412F6D2F8BE290E0FD
:100E40000E94771BDF91CF911F910895813059F057
:100E500028F0823069F0833081F0089582E290E0DA
:100E60000C94521B089585E290E00C94521B089557
:100E700088E290E00C94521B08958BE290E00C9471
:100E8000521B0895813059F028F0823069F0833088
:100E900081F0089582E290E00C945E1B089585E253
:100EA00090E00C945E1B089588E290E00C945E1B29
:100EB00008958BE290E00C945E1B0895813059F008
:100EC00028F0823069F0833081F0089582E290E06A
:100ED0000C946B1B089585E290E00C946B1B0895B5
:100EE00088E290E00C946B1B08958BE290E00C94E8
:100EF0006B1B089565E083E0C5DF66E083E0C2DF39
:100F000081E088B964E083E0A1DF8FE097E2019798
:100F1000F1F700C0000064E083E0B4DF8FE097E207
:100F20000197F1F700C00000089565E083E0AADFB3
:100F300066E083E0A7DF80E888B964E083E086DFCD
:100F40008FE097E20197F1F700C0000064E083E0D2
:100F500099DF8FE097E20197F1F700C00000089554
:100F6000CF93C4E020E041E06C2F83E02ADF6C2FB8
:100F700083E088DFCF5FC730A9F7C0E020E041E021
:100F80006C2F82E01EDF6C2F82E07CDFCF5FC830E9
:100F9000A9F72FEF89E698E1215080409040E1F7D2
:100FA00000C00000A7DF65E083E06CDF66E083E05F
:100FB00069DF88E388B964E083E048DF8FE097E287
:100FC0000197F1F700C0000064E083E05BDF8FE091
:100FD00097E20197F1F700C0000065E083E052DF7F
:100FE00066E083E04FDF8DE088B964E083E02EDFC8
:100FF0008FE097E20197F1F700C0000064E083E022
:1010000041DF8FE097E20197F1F700C0000065E053
:1010100083E038DF66E083E035DF84E188B964E0AF
:1010200083E014DF8FE097E20197F1F700C0000042
:1010300064E083E027DF8FE097E20197F1F700C0DB
:10104000000073DFCF91089565E083E01BDF66E069
:1010500083E018DF80EC88B964E083E0F7DE8FE09E
:1010600097E20197F1F700C0000064E083E00ADF37
:101070008FE097E20197F1F700C000000895CF9349
:10108000C82F65E083E0FEDE66E083E0DFDEC8B9FE
:1010900064E083E0DBDE8FE097E20197F1F700C0C8
:1010A000000064E083E0EEDE8FE097E20197F1F765
:1010B00000C00000CF9108950F931F93CF93DF934B
:1010C000FC0101900020E9F73197E81BF90B1E168F
:1010D0001F064CF4EC018C010E0F1F1F8991CFDF0E
:1010E000C017D107D9F7DF91CF911F910F910895C4
:1010F0000F931F93CF93DF93BC0180E090E00E9499
:10110000881D29EF33EE4FE850E40E94161E0E941E
:101110005C1DCB018E5E92400AE010E0B8010E9497
:10112000791EEB016996E6DE00DF8DE491E0C4DF15
:10113000CE01B8010E94791EC82F80E3860F9FDF81
:1011400080E38C0F9CDF83E49ADFDF91CF911F91C6
:101150000F9108950F931F93CF93DF93803722E170
:10116000920709F41FC408F072C08037F1E19F07AD
:1011700009F436C298F58032E1E19E0709F44AC1CC
:10118000B0F4811520E1920709F4E4C028F4892B1A
:1011900009F4D6C00C94511A8115F1E19F0709F4A6
:1011A00001C18031914109F407C10C94511A803476
:1011B000E1E19E0709F48AC130F48033914109F4DA
:1011C00057C10C94511A8035E1E19E0709F4ACC176
:1011D0008036914109F4D6C10C94511A803122E134
:1011E000920709F4BFC2B8F48039F1E19F0709F40E
:1011F00053C230F48038914109F420C20C94511A42
:10120000803AF1E19F0709F475C28115924109F412
:101210009FC20C94511A8034E2E19E0709F432C354
:1012200058F4803222E1920709F4CCC28033924113
:1012300009F4F8C20C94511A8035F2E19F0709F4C1
:1012400051C38036924109F47DC30C94511A811523
:10125000E0E49E0709F49CC0A0F5811520E2920706
:1012600009F482C0B8F48039F2E19F0709F4FAC3A7
:1012700030F48038924109F4C5C30C94511A803A75
:10128000F2E19F0709F41EC48115934109F44AC491
:101290000C94511A8115E2E29E0709F468C430F4F7
:1012A0008115914209F448C40C94511A8115E0E368
:1012B0009E0709F463C08115914309F473C40C942B
:1012C000511A811525E4920711F40C94B412B8F464
:1012D0008115F2E49F0709F491C530F4811591441A
:1012E00009F469C40C94511A8115F3E49F0709F4B9
:1012F000B0C68115944409F4F2C70C94511A8115B3
:10130000E8E49E0711F40C94831668F4811526E432
:10131000920711F40C94F9138115974411F40C946D
:101320003E150C94511A8115F9E49F0711F40C94A1
:10133000C81781159A4411F40C940D190C94511A84
:10134000D9DD85E091E0B8DE7FDE8EE091E0B4DEAD
:101350000C94511ACFDD86E591E0AEDE75DE80E6B5
:1013600091E0AADE0C94511AC5DD8BE691E0A4DE73
:101370006BDE85E791E0A0DE0C94511ABBDD80E6C0
:1013800091E09ADE61DE80E891E096DE0C94511ADD
:10139000B1DD8FE891E090DE57DE8EE991E08CDEE2
:1013A0000C94511AA7DD8BEA91E086DE4DDE89EBC5
:1013B00091E082DE0C94511A9DDD85EC91E07CDE9B
:1013C000C0E1D0E00BE413E0F8018081813021F42A
:1013D000CE019FDC54DE02C080E251DE2196CD3189
:1013E000D10591F731DE89EC91E066DEC0E2D0E014
:1013F0000BE413E0F8018181813021F4CE0189DC16
:101400003EDE02C080E23BDE2196CD32D10591F76F
:101410000C94511A6FDD8DEC91E04EDEC0E1D0E00E
:101420000BE413E0F8018081813021F4CE0171DCFE
:1014300026DE02C080E223DE2196CD31D10591F770
:1014400003DE81ED91E038DEC0E2D0E00BE413E092
:10145000F8018181813021F4CE015BDC10DE02C015
:1014600080E20DDE2196CD32D10591F70C94511A10
:1014700041DD89EC91E020DEC0E2D0E00BE413E036
:10148000F8018181813021F4CE0143DCF8DD02C016
:1014900080E2F5DD2196CD32D10591F7D5DD85EDE0
:1014A00091E00ADEC0E3D0E00BE413E0F8018281B2
:1014B000813021F4CE012DDCE2DD02C080E2DFDDEF
:1014C0002196CD33D10591F70C94511A13DD89ED96
:1014D00091E0F2DDC0E3D0E00BE413E0F80182819B
:1014E000813021F4CE0115DCCADD02C080E2C7DD07
:1014F0002196CD33D10591F7A7DD8DED91E0DCDDAF
:10150000C0E4D0E00BE413E0F8018381813021F4E2
:10151000CE01FFDBB4DD02C080E2B1DD2196CD3427
:10152000D10591F70C94511AE5DC81EE91E0C4DD10
:10153000C0E4D0E00BE413E0F8018381813021F4B2
:10154000CE01E7DB9CDD02C080E299DD2196CD343F
:10155000D10591F779DD85EE91E0AEDDC0E5D0E013
:101560000BE413E0F8018481813021F4CE01D1DB5A
:1015700086DD02C080E283DD2196CD35D10591F76D
:101580000C94511AB7DC89EE91E096DDC0E5D0E00D
:101590000BE413E0F8018481813021F4CE01B9DB42
:1015A0006EDD02C080E26BDD2196CD35D10591F76D
:1015B0004BDD8DEE91E080DDC0E6D0E00BE413E082
:1015C000F8018581813021F4CE01A3DB58DD02C012
:1015D00080E255DD2196CD36D10591F70C94511A54
:1015E00089DC81EF91E068DDC0E6D0E00BE413E038
:1015F000F8018581813021F4CE018BDB40DD02C012
:1016000080E23DDD2196CD36D10591F71DDD85EFD8
:1016100091E052DDC0E7D0E00BE413E0F8018681F1
:10162000813021F4CE0175DB2ADD02C080E227DDA6
:101630002196CD37D10591F70C94511A5BDC89EFD7
:1016400091E03ADDC0E7D0E00BE413E0F8018681D9
:10165000813021F4CE015DDB12DD02C080E20FDDBE
:101660002196CD37D10591F7EFDC8DEF91E024DDA8
:10167000C0E8D0E00BE413E0F8018781813021F469
:10168000CE0147DBFCDC02C080E2F9DC2196CD38DC
:10169000D10591F70C94511A2DDC81E092E00CDD1C
:1016A000C0E8D0E00BE413E0F8018781813021F439
:1016B000CE012FDBE4DC02C080E2E1DC2196CD38F4
:1016C000D10591F7C1DC85E092E0F6DCC0E9D0E01D
:1016D0000BE413E0F8018085813021F4CE0119DBA1
:1016E000CEDC02C080E2CBDC2196CD39D10591F76A
:1016F0000C94511AFFDB89E092E0DEDCC0E9D0E017
:101700000BE413E0F8018085813021F4CE0101DB88
:10171000B6DC02C080E2B3DC2196CD39D10591F769
:1017200093DC8DE092E0C8DCC0EAD0E00BE413E08B
:10173000F8018185813021F4CE01EBDAA0DC02C012
:1017400080E29DDC2196CD3AD10591F70C94511A97
:10175000D1DB81E192E0B0DC77DC8FE192E0ACDCC0
:101760000C94511AC7DB85EC91E0A6DCC0E1D1E016
:1017700007E513E0F8018081813021F4CE01C9DA58
:101780007EDC02C080E27BDC2196CD31F1E0DF0718
:1017900089F75ADC89EC91E08FDCC0E2D1E007E503
:1017A00013E0F8018181813021F4CE01B2DA67DCE7
:1017B00002C080E264DC2196CD32F1E0DF0789F7D8
:1017C0000C94511A97DB8DEC91E076DCC0E1D1E00E
:1017D00007E513E0F8018081813021F4CE0199DA28
:1017E0004EDC02C080E24BDC2196CD31F1E0DF0718
:1017F00089F72ADC81ED91E05FDCC0E2D1E007E50A
:1018000013E0F8018181813021F4CE0182DA37DCE6
:1018100002C080E234DC2196CD32F1E0DF0789F7A7
:101820000C94511A67DB89EC91E046DCC0E2D1E010
:1018300007E513E0F8018181813021F4CE0169DAF6
:101840001EDC02C080E21BDC2196CD32F1E0DF0716
:1018500089F7FADB85ED91E02FDCC0E3D1E007E505
:1018600013E0F8018281813021F4CE0152DA07DCE5
:1018700002C080E204DC2196CD33F1E0DF0789F776
:101880000C94511A37DB89ED91E016DCC0E3D1E00E
:1018900007E513E0F8018281813021F4CE0139DAC5
:1018A000EEDB02C080E2EBDB2196CD33F1E0DF0717
:1018B00089F7CADB8DED91E0FFDBC0E4D1E007E5FD
:1018C00013E0F8018381813021F4CE0122DAD7DBE5
:1018D00002C080E2D4DB2196CD34F1E0DF0789F746
:1018E0000C94511A07DB81EE91E0E6DBC0E4D1E015
:1018F00007E513E0F8018381813021F4CE0109DA94
:10190000BEDB02C080E2BBDB2196CD34F1E0DF0715
:1019100089F79ADB85EE91E0CFDBC0E5D1E007E502
:1019200013E0F8018481813021F4CE01F2D9A7DBE4
:1019300002C080E2A4DB2196CD35F1E0DF0789F714
:101940000C94511AD7DA89EE91E0B6DBC0E5D1E00C
:1019500007E513E0F8018481813021F4CE01D9D963
:101960008EDB02C080E28BDB2196CD35F1E0DF0714
:1019700089F76ADB8DEE91E09FDBC0E6D1E007E5F9
:1019800013E0F8018581813021F4CE01C2D977DBE3
:1019900002C080E274DB2196CD36F1E0DF0789F7E3
:1019A0000C94511AA7DA81EF91E086DBC0E6D1E012
:1019B00007E513E0F8018581813021F4CE01A9D932
:1019C0005EDB02C080E25BDB2196CD36F1E0DF0713
:1019D00089F73ADB85EF91E06FDBC0E7D1E007E5FF
:1019E00013E0F8018681813021F4CE0192D947DBE2
:1019F00002C080E244DB2196CD37F1E0DF0789F7B2
:101A00000C94511A77DA89EF91E056DBC0E7D1E008
:101A100007E513E0F8018681813021F4CE0179D900
:101A20002EDB02C080E22BDB2196CD37F1E0DF0711
:101A300089F70ADB8DEF91E03FDBC0E8D1E007E5F5
:101A400013E0F8018781813021F4CE0162D917DBE0
:101A500002C080E214DB2196CD38F1E0DF0789F780
:101A60000C94511A47DA81E092E026DBC0E8D1E01D
:101A700007E513E0F8018781813021F4CE0149D9CF
:101A8000FEDA02C080E2FBDA2196CD38F1E0DF0712
:101A900089F7DADA85E092E00FDBC0E9D1E007E50B
:101AA00013E0F8018085813021F4CE0132D9E7DAE4
:101AB00002C080E2E4DA2196CD39F1E0DF0789F750
:101AC0000C94511A17DA89E092E0F6DAC0E9D1E015
:101AD00007E513E0F8018085813021F4CE0119D9A2
:101AE000CEDA02C080E2CBDA2196CD39F1E0DF0711
:101AF00089F7AADA8DE092E0DFDAC0EAD1E007E503
:101B000013E0F8018185813021F4CE0102D9B7DAE2
:101B100002C080E2B4DA2196CD3AF1E0DF0789F71E
:101B20000C94511AE7D989EB91E0C6DA8DDA8BE291
:101B300092E0C2DA0C94511ADDD980918703882390
:101B400069F0813011F00C94511A89E392E0B4DA13
:101B50007BDA89E492E0B0DA0C94511A8AE592E0DB
:101B6000ABDA72DA8AE692E0A7DA0C94511AC2D99B
:101B700080918703882369F0813011F00C94511A09
:101B80008BE792E099DA60DA8BE892E095DA0C94D0
:101B9000511A8CE992E090DA57DA8CEA92E08CDA0A
:101BA0000C94511A80E06DD8909383038093820344
:101BB0009FDA0C94511A9ED98DEB92E07DDA8091D8
:101BC0006C03813009F084C080E192E0A2D8809358
:101BD000990381E192E09DD88093980382E192E09D
:101BE00098D880939A0383E192E093D880939703E7
:101BF00080919903CDEC8C9F812D1124869586953B
:101C00008695805D3CDA809199038C9F912D1124FB
:101C1000969596959695990F292F220F220F920F40
:101C2000891B805D2CDA8AE32ADA809198038C9FE5
:101C3000812D1124869586958695805D20DA809188
:101C400098038C9F912D1124969596959695990FB2
:101C5000292F220F220F920F891B805D10DA80E25C
:101C60000EDA80919A038C9F812D1124869586959A
:101C70008695805D04DA80919A038C9F912D1124C2
:101C8000969596959695990F292F220F220F920FD0
:101C9000891B805DF4D98FE2F2D9809197038C9FE4
:101CA000812D1124869586958695805DE8D9809151
:101CB00097038C9F912D1124969596959695990F43
:101CC000292F220F220F920F891B805DD8D903C0C4
:101CD00083EC92E0F1D9B8D98FEC92E0EDD9809104
:101CE0006D03813009F085C080E292E012D88093C4
:101CF000990381E292E00DD88093980382E292E00A
:101D000008D880939A0383E292E003D880939703E4
:101D100080919903CDEC8C9F812D11248695869519
:101D20008695805DACD9809199038C9F912D11246B
:101D3000969596959695990F292F220F220F920F1F
:101D4000891B805D9CD98AE39AD9809198038C9FE6
:101D5000812D1124869586958695805D90D98091F8
:101D600098038C9F912D1124969596959695990F91
:101D7000292F220F220F920F891B805D80D980E2CC
:101D80007ED980919A038C9F812D1124869586950A
:101D90008695805D74D980919A038C9F912D112432
:101DA000969596959695990F292F220F220F920FAF
:101DB000891B805D64D98FE262D9809197038C9FE3
:101DC000812D1124869586958695805D58D98091C0
:101DD00097038C9F912D1124969596959695990F22
:101DE000292F220F220F920F891B805D48D90C9456
:101DF000511A83EC92E060D90C94511A7BD885ED8E
:101E000092E05AD980916C03813009F088C080E15A
:101E100092E00E9489068093990381E192E00E94FA
:101E200089068093980382E192E00E94890680935C
:101E30009A0383E192E00E94890680939703809140
:101E40009903CDEC8C9F812D1124869586958695DE
:101E5000805D15D9809199038C9F912D11249695C1
:101E600096959695990F292F220F220F920F891B75
:101E7000805D05D98AE303D9809198038C9F812DD9
:101E80001124869586958695805DF9D88091980372
:101E90008C9F912D1124969596959695990F292FA3
:101EA000220F220F920F891B805DE9D880E2E7D8CC
:101EB00080919A038C9F812D112486958695869515
:101EC000805DDDD880919A038C9F912D1124969589
:101ED00096959695990F292F220F220F920F891B05
:101EE000805DCDD88FE2CBD8809197038C9F812DD8
:101EF0001124869586958695805DC1D8809197033B
:101F00008C9F912D1124969596959695990F292F32
:101F1000220F220F920F891B805DB1D803C083EC82
:101F200092E0CAD891D88BED92E0C6D880916D032B
:101F3000813009F089C080E292E00E948906809396
:101F4000990381E292E00E9489068093980382E2DD
:101F500092E00E94890680939A0383E292E00E94B5
:101F600089068093970380919903CDEC8C9F812DF6
:101F70001124869586958695805D81D880919903F8
:101F80008C9F912D1124969596959695990F292FB2
:101F9000220F220F920F891B805D71D88AE36FD8C0
:101FA000809198038C9F812D112486958695869526
:101FB000805D65D8809198038C9F912D1124969512
:101FC00096959695990F292F220F220F920F891B14
:101FD000805D55D880E253D880919A038C9F812DE3
:101FE0001124869586958695805D49D880919A03BF
:101FF0008C9F912D1124969596959695990F292F42
:10200000220F220F920F891B805D39D88FE237D8BB
:10201000809197038C9F812D1124869586958695B6
:10202000805D2DD8809197038C9F912D11249695DA
:1020300096959695990F292F220F220F920F891BA3
:10204000805D1DD80C94511A83EC92E035D80C9425
:10205000511A0E947A078FEC92E02ED880916D037E
:10206000813009F093C080E292E00E94890680935B
:10207000990381E292E00E9489068093980382E2AC
:1020800092E00E94890680939A0383E292E00E9484
:1020900089068093970380919903CDEC8C9F812DC5
:1020A0001124869586958695805D0E943F088091D3
:1020B00099038C9F912D1124969596959695990F3D
:1020C000292F220F220F920F891B805D0E943F084B
:1020D0008AE30E943F08809198038C9F812D1124F0
:1020E000869586958695805D0E943F08809198032D
:1020F0008C9F912D1124969596959695990F292F41
:10210000220F220F920F891B805D0E943F0880E200
:102110000E943F0880919A038C9F812D11248695FF
:1021200086958695805D0E943F0880919A038C9FDA
:10213000912D1124969596959695990F292F220FFA
:10214000220F920F891B805D0E943F088FE20E9440
:102150003F08809197038C9F812D11248695869549
:102160008695805D0E943F08809197038C9F912DFA
:102170001124969596959695990F292F220F220F47
:10218000920F891B805D0E943F0804C083EC92E09F
:102190000E945C080E94240881EE92E00E945C0884
:1021A00080916E03813009F094C080E392E00E9438
:1021B00089068093990381E392E00E9489068093C7
:1021C000980382E392E00E94890680939A0383E356
:1021D00092E00E9489068093970380919903CDEC49
:1021E0008C9F812D1124869586958695805D0E9411
:1021F0003F08809199038C9F912D11249695969577
:102200009695990F292F220F220F920F891B805D1F
:102210000E943F088AE30E943F08809198038C9FA8
:10222000812D1124869586958695805D0E943F08B4
:10223000809198038C9F912D112496959695969553
:10224000990F292F220F220F920F891B805D0E9468
:102250003F0880E20E943F0880919A038C9F812D65
:102260001124869586958695805D0E943F08809111
:102270009A038C9F912D1124969596959695990F7A
:10228000292F220F220F920F891B805D0E943F0889
:102290008FE20E943F08809197038C9F812D11242B
:1022A000869586958695805D0E943F08809197036C
:1022B0008C9F912D1124969596959695990F292F7F
:1022C000220F220F920F891B805D0E943F080C9401
:1022D000511A83EC92E00E945C080C94511A0E94FF
:1022E0007A0787EE92E00E945C0880916E0381304D
:1022F00009F093C080E392E00E94890680939903DD
:1023000081E392E00E9489068093980382E392E041
:102310000E94890680939A0383E392E00E948906D3
:102320008093970380919903CDEC8C9F812D11248C
:10233000869586958695805D0E943F0880919903D9
:102340008C9F912D1124969596959695990F292FEE
:10235000220F220F920F891B805D0E943F088AE3A3
:102360000E943F08809198038C9F812D11248695AF
:1023700086958695805D0E943F08809198038C9F8A
:10238000912D1124969596959695990F292F220FA8
:10239000220F920F891B805D0E943F0880E20E94FD
:1023A0003F0880919A038C9F812D112486958695F4
:1023B0008695805D0E943F0880919A038C9F912DA5
:1023C0001124969596959695990F292F220F220FF5
:1023D000920F891B805D0E943F088FE20E943F0898
:1023E000809197038C9F812D1124869586958695E3
:1023F000805D0E943F08809197038C9F912D11244E
:10240000969596959695990F292F220F220F920F48
:10241000891B805D0E943F0804C083EC92E00E940B
:102420005C080E9424088DEE92E00E945C08809176
:102430006F03813009F093C080E492E00E94890626
:102440008093990381E492E00E9489068093980327
:1024500082E492E00E94890680939A0383E492E0EA
:102460000E9489068093970380919903CDEC8C9FFD
:10247000812D1124869586958695805D0E943F0862
:10248000809199038C9F912D112496959695969500
:10249000990F292F220F220F920F891B805D0E9416
:1024A0003F088AE30E943F08809198038C9F812D0A
:1024B0001124869586958695805D0E943F088091BF
:1024C00098038C9F912D1124969596959695990F2A
:1024D000292F220F220F920F891B805D0E943F0837
:1024E00080E20E943F0880919A038C9F812D1124E5
:1024F000869586958695805D0E943F0880919A0317
:102500008C9F912D1124969596959695990F292F2C
:10251000220F220F920F891B805D0E943F088FE2DD
:102520000E943F08809197038C9F812D11248695EE
:1025300086958695805D0E943F08809197038C9FC9
:10254000912D1124969596959695990F292F220FE6
:10255000220F920F891B805D0E943F08A2C783EC67
:1025600092E00E945C089DC70E947A0783EF92E088
:102570000E945C0880916F03813009F093C080E471
:1025800092E00E9489068093990381E492E00E9480
:1025900089068093980382E492E00E9489068093E2
:1025A0009A0383E492E00E948906809397038091C6
:1025B0009903CDEC8C9F812D112486958695869567
:1025C000805D0E943F08809199038C9F912D11247A
:1025D000969596959695990F292F220F220F920F77
:1025E000891B805D0E943F088AE30E943F0880911A
:1025F00098038C9F812D1124869586958695805D04
:102600000E943F08809198038C9F912D11249695EC
:1026100096959695990F292F220F220F920F891BBD
:10262000805D0E943F0880E20E943F0880919A03EB
:102630008C9F812D1124869586958695805D0E94BC
:102640003F0880919A038C9F912D11249695969521
:102650009695990F292F220F220F920F891B805DCB
:102660000E943F088FE20E943F08809197038C9F51
:10267000812D1124869586958695805D0E943F0860
:10268000809197038C9F912D112496959695969500
:10269000990F292F220F220F920F891B805D0E9414
:1026A0003F0804C083EC92E00E945C080E9424086A
:1026B00089EF92E00E945C0880917003813009F0FC
:1026C00093C080E592E00E9489068093990381E59A
:1026D00092E00E9489068093980382E592E00E942E
:1026E000890680939A0383E592E00E94890680938D
:1026F000970380919903CDEC8C9F812D11248695B1
:1027000086958695805D0E943F08809199038C9FF5
:10271000912D1124969596959695990F292F220F14
:10272000220F920F891B805D0E943F088AE30E945E
:102730003F08809198038C9F812D11248695869562
:102740008695805D0E943F08809198038C9F912D13
:102750001124969596959695990F292F220F220F61
:10276000920F891B805D0E943F0880E20E943F0813
:1027700080919A038C9F812D11248695869586954C
:10278000805D0E943F0880919A038C9F912D1124B7
:10279000969596959695990F292F220F220F920FB5
:1027A000891B805D0E943F088FE20E943F08809154
:1027B00097038C9F812D1124869586958695805D43
:1027C0000E943F08809197038C9F912D112496952C
:1027D00096959695990F292F220F220F920F891BFC
:1027E000805D0E943F085DC683EC92E00E945C0819
:1027F00058C60E947A078FEF92E00E945C08809191
:102800007003813009F093C080E592E00E94890650
:102810008093990381E592E00E9489068093980352
:1028200082E592E00E94890680939A0383E592E014
:102830000E9489068093970380919903CDEC8C9F29
:10284000812D1124869586958695805D0E943F088E
:10285000809199038C9F912D11249695969596952C
:10286000990F292F220F220F920F891B805D0E9442
:102870003F088AE30E943F08809198038C9F812D36
:102880001124869586958695805D0E943F088091EB
:1028900098038C9F912D1124969596959695990F56
:1028A000292F220F220F920F891B805D0E943F0863
:1028B00080E20E943F0880919A038C9F812D112411
:1028C000869586958695805D0E943F0880919A0343
:1028D0008C9F912D1124969596959695990F292F59
:1028E000220F220F920F891B805D0E943F088FE20A
:1028F0000E943F08809197038C9F812D112486951B
:1029000086958695805D0E943F08809197038C9FF5
:10291000912D1124969596959695990F292F220F12
:10292000220F920F891B805D0E943F0804C083EC38
:1029300092E00E945C080E94240885E093E00E94D7
:102940005C0880917103813009F093C080E692E0C9
:102950000E9489068093990381E692E00E9489068D
:102960008093980382E692E00E94890680939A03FE
:1029700083E692E00E9489068093970380919903F1
:10298000CDEC8C9F812D1124869586958695805D52
:102990000E943F08809199038C9F912D1124969558
:1029A00096959695990F292F220F220F920F891B2A
:1029B000805D0E943F088AE30E943F08809198034F
:1029C0008C9F812D1124869586958695805D0E9429
:1029D0003F08809198038C9F912D11249695969590
:1029E0009695990F292F220F220F920F891B805D38
:1029F0000E943F0880E20E943F0880919A038C9FCA
:102A0000812D1124869586958695805D0E943F08CC
:102A100080919A038C9F912D112496959695969569
:102A2000990F292F220F220F920F891B805D0E9480
:102A30003F088FE20E943F08809197038C9F812D71
:102A40001124869586958695805D0E943F08809129
:102A500097038C9F912D1124969596959695990F95
:102A6000292F220F220F920F891B805D0E943F08A1
:102A700018C583EC92E00E945C0813C50E947A0797
:102A80008BE093E00E945C0880917103813009F033
:102A900093C080E692E00E9489068093990381E6C4
:102AA00092E00E9489068093980382E692E00E9459
:102AB000890680939A0383E692E00E9489068093B8
:102AC000970380919903CDEC8C9F812D11248695DD
:102AD00086958695805D0E943F08809199038C9F22
:102AE000912D1124969596959695990F292F220F41
:102AF000220F920F891B805D0E943F088AE30E948B
:102B00003F08809198038C9F812D1124869586958E
:102B10008695805D0E943F08809198038C9F912D3F
:102B20001124969596959695990F292F220F220F8D
:102B3000920F891B805D0E943F0880E20E943F083F
:102B400080919A038C9F812D112486958695869578
:102B5000805D0E943F0880919A038C9F912D1124E3
:102B6000969596959695990F292F220F220F920FE1
:102B7000891B805D0E943F088FE20E943F08809180
:102B800097038C9F812D1124869586958695805D6F
:102B90000E943F08809197038C9F912D1124969558
:102BA00096959695990F292F220F220F920F891B28
:102BB000805D0E943F0804C083EC92E00E945C08A4
:102BC0000E94240881E193E00E945C0880917203D6
:102BD000813009F093C080E792E00E9489068093DB
:102BE000990381E792E00E9489068093980382E727
:102BF00092E00E94890680939A0383E792E00E9404
:102C000089068093970380919903CDEC8C9F812D49
:102C10001124869586958695805D0E943F08809157
:102C200099038C9F912D1124969596959695990FC1
:102C3000292F220F220F920F891B805D0E943F08CF
:102C40008AE30E943F08809198038C9F812D112474
:102C5000869586958695805D0E943F0880919803B1
:102C60008C9F912D1124969596959695990F292FC5
:102C7000220F220F920F891B805D0E943F0880E285
:102C80000E943F0880919A038C9F812D1124869584
:102C900086958695805D0E943F0880919A038C9F5F
:102CA000912D1124969596959695990F292F220F7F
:102CB000220F920F891B805D0E943F088FE20E94C5
:102CC0003F08809197038C9F812D112486958695CE
:102CD0008695805D0E943F08809197038C9F912D7F
:102CE0001124969596959695990F292F220F220FCC
:102CF000920F891B805D0E943F08D3C383EC92E052
:102D00000E945C08CEC30E947A0787E193E00E948C
:102D10005C0880917203813009F093C080E792E0F3
:102D20000E9489068093990381E792E00E948906B8
:102D30008093980382E792E00E94890680939A0329
:102D400083E792E00E94890680939703809199031C
:102D5000CDEC8C9F812D1124869586958695805D7E
:102D60000E943F08809199038C9F912D1124969584
:102D700096959695990F292F220F220F920F891B56
:102D8000805D0E943F088AE30E943F08809198037B
:102D90008C9F812D1124869586958695805D0E9455
:102DA0003F08809198038C9F912D112496959695BC
:102DB0009695990F292F220F220F920F891B805D64
:102DC0000E943F0880E20E943F0880919A038C9FF6
:102DD000812D1124869586958695805D0E943F08F9
:102DE00080919A038C9F912D112496959695969596
:102DF000990F292F220F220F920F891B805D0E94AD
:102E00003F088FE20E943F08809197038C9F812D9D
:102E10001124869586958695805D0E943F08809155
:102E200097038C9F912D1124969596959695990FC1
:102E3000292F220F220F920F891B805D0E943F08CD
:102E400004C083EC92E00E945C080E9424088DE19B
:102E500093E00E945C0880917303813009F093C075
:102E600080E892E00E9489068093990381E892E0CD
:102E70000E9489068093980382E892E00E94890666
:102E800080939A0383E892E00E94890680939703D7
:102E900080919903CDEC8C9F812D11248695869588
:102EA0008695805D0E943F08809199038C9F912DAB
:102EB0001124969596959695990F292F220F220FFA
:102EC000920F891B805D0E943F088AE30E943F08A1
:102ED000809198038C9F812D1124869586958695E7
:102EE000805D0E943F08809198038C9F912D112452
:102EF000969596959695990F292F220F220F920F4E
:102F0000891B805D0E943F0880E20E943F088091FB
:102F10009A038C9F812D1124869586958695805DD8
:102F20000E943F0880919A038C9F912D11249695C1
:102F300096959695990F292F220F220F920F891B94
:102F4000805D0E943F088FE20E943F0880919703B6
:102F50008C9F812D1124869586958695805D0E9493
:102F60003F08809197038C9F912D112496959695FB
:102F70009695990F292F220F220F920F891B805DA2
:102F80000E943F088EC283EC92E00E945C0889C2D6
:102F90000E947A0783E293E00E945C0880917303A9
:102FA000813009F093C080E892E00E948906809306
:102FB000990381E892E00E9489068093980382E851
:102FC00092E00E94890680939A0383E892E00E942F
:102FD00089068093970380919903CDEC8C9F812D76
:102FE0001124869586958695805D0E943F08809184
:102FF00099038C9F912D1124969596959695990FEE
:10300000292F220F220F920F891B805D0E943F08FB
:103010008AE30E943F08809198038C9F812D1124A0
:10302000869586958695805D0E943F0880919803DD
:103030008C9F912D1124969596959695990F292FF1
:10304000220F220F920F891B805D0E943F0880E2B1
:103050000E943F0880919A038C9F812D11248695B0
:1030600086958695805D0E943F0880919A038C9F8B
:10307000912D1124969596959695990F292F220FAB
:10308000220F920F891B805D0E943F088FE20E94F1
:103090003F08809197038C9F812D112486958695FA
:1030A0008695805D0E943F08809197038C9F912DAB
:1030B0001124969596959695990F292F220F220FF8
:1030C000920F891B805D0E943F0804C083EC92E050
:1030D0000E945C080E94240889E293E00E945C0838
:1030E00080917403813009F093C080E992E00E94DE
:1030F00089068093990381E992E00E948906809372
:10310000980382E992E00E94890680939A0383E9FA
:1031100092E00E9489068093970380919903CDECF9
:103120008C9F812D1124869586958695805D0E94C1
:103130003F08809199038C9F912D11249695969527
:103140009695990F292F220F220F920F891B805DD0
:103150000E943F088AE30E943F08809198038C9F59
:10316000812D1124869586958695805D0E943F0865
:10317000809198038C9F912D112496959695969504
:10318000990F292F220F220F920F891B805D0E9419
:103190003F0880E20E943F0880919A038C9F812D16
:1031A0001124869586958695805D0E943F088091C2
:1031B0009A038C9F912D1124969596959695990F2B
:1031C000292F220F220F920F891B805D0E943F083A
:1031D0008FE20E943F08809197038C9F812D1124DC
:1031E000869586958695805D0E943F08809197031D
:1031F0008C9F912D1124969596959695990F292F30
:10320000220F220F920F891B805D0E943F0849C147
:1032100083EC92E00E945C0844C10E947A078FE22E
:1032200093E00E945C0880917403813009F093C0A0
:1032300080E992E00E9489068093990381E992E0F7
:103240000E9489068093980382E992E00E94890691
:1032500080939A0383E992E00E9489068093970302
:1032600080919903CDEC8C9F812D112486958695B4
:103270008695805D0E943F08809199038C9F912DD7
:103280001124969596959695990F292F220F220F26
:10329000920F891B805D0E943F088AE30E943F08CD
:1032A000809198038C9F812D112486958695869513
:1032B000805D0E943F08809198038C9F912D11247E
:1032C000969596959695990F292F220F220F920F7A
:1032D000891B805D0E943F0880E20E943F08809128
:1032E0009A038C9F812D1124869586958695805D05
:1032F0000E943F0880919A038C9F912D11249695EE
:1033000096959695990F292F220F220F920F891BC0
:10331000805D0E943F088FE20E943F0880919703E2
:103320008C9F812D1124869586958695805D0E94BF
:103330003F08809197038C9F912D11249695969527
:103340009695990F292F220F220F920F891B805DCE
:103350000E943F0804C083EC92E00E945C080E9437
:10336000240885E393E00E945C0880917503813016
:1033700009F093C080EA92E00E9489068093990345
:1033800081EA92E00E9489068093980382EA92E0A3
:103390000E94890680939A0383EA92E00E9489063C
:1033A0008093970380919903CDEC8C9F812D1124FC
:1033B000869586958695805D0E943F088091990349
:1033C0008C9F912D1124969596959695990F292F5E
:1033D000220F220F920F891B805D0E943F088AE313
:1033E0000E943F08809198038C9F812D112486951F
:1033F00086958695805D0E943F08809198038C9FFA
:10340000912D1124969596959695990F292F220F17
:10341000220F920F891B805D0E943F0880E20E946C
:103420003F0880919A038C9F812D11248695869563
:103430008695805D0E943F0880919A038C9F912D14
:103440001124969596959695990F292F220F220F64
:10345000920F891B805D0E943F088FE20E943F0807
:10346000809197038C9F812D112486958695869552
:10347000805D0E943F08809197038C9F912D1124BD
:10348000969596959695990F292F220F220F920FB8
:10349000891B805D0E943F0804C083EC92E00E947B
:1034A0005C08DF91CF911F910F910895EF92FF92E9
:1034B0000F931F93CF93DF938B01BC0180E090E0CB
:1034C00027D329EF33EE4FE850E4B0D3F5D2CB0148
:1034D0008E5E92406AE070E00CD47B0189E1E80ED8
:1034E000F11C20E030E0D0E0F901E55BFC4F908179
:1034F000913009F4DF5F2F5F3F4F2A303105A1F78C
:103500000E947A070E949507F8018081CDEC8C9F7C
:10351000812D1124869586958695805D0E943F08B1
:10352000F80180818C9F912D112496959695969502
:10353000990F292F220F220F920F891B805D0E9465
:103540003F088AE30E943F08F80181818C9F812D0A
:103550001124869586958695805D0E943F08F80126
:1035600081818C9F912D1124969596959695990F12
:10357000292F220F220F920F891B805D0E943F0886
:1035800080E20E943F08F80182818C9F812D1124E6
:10359000869586958695805D0E943F08F801828118
:1035A0008C9F912D1124969596959695990F292F7C
:1035B000220F220F920F891B805D0E943F088FE22D
:1035C0000E943F08F80183818C9F812D11248695EC
:1035D00086958695805D0E943F08F80183818C9FC7
:1035E000912D1124969596959695990F292F220F36
:1035F000220F920F891B805D0E943F088FE20E947C
:103600003F08F80184818C9F812D11248695869531
:103610008695805D0E943F08F80184818C9F912DE2
:103620001124969596959695990F292F220F220F82
:10363000920F891B805D0E943F080E942408C701E9
:103640006AE070E056D3182F80E3860F0E943F088F
:1036500080E3810F0E943F0883E40E943F088BE3D0
:1036600093E00E945C08DC9FC12D1124C695C6958D
:10367000C69580E38C0F0E943F08CC0F8C2F880FDB
:10368000880FC80F8D2F8C1B805D0E943F088FE331
:1036900093E00E945C08DF91CF911F910F91FF9002
:1036A000EF900895FC01408121E030E002C0220F3C
:1036B000331F6A95E2F7242B20830895FC01908143
:1036C00021E030E002C0220F331F6A95E2F7209517
:1036D000292320830895FC01408121E030E002C0CD
:1036E000220F331F6A95E2F7242720830895FC01F7
:1036F000942F208141E050E0062E02C0440F551F58
:103700000A94E2F7409550952423492F50E002C0D7
:10371000440F551F6A95E2F7422B4083089590E0CD
:1037200002C0959587956A95E2F78170089564E0E7
:103730008CE490E0B7DF64E084E290E0B3DF65E022
:1037400084E290E0AFDF67E084E290E0ABDF66E028
:1037500084E290E0B3DF65E08CE490E0AFDF63E00B
:103760008CE490E0ABDF62E08CE490E0A7DF60E007
:103770008CE490E0A3DF60E08CE490E09FDF61E008
:103780008CE490E09BCF089566E08CE490E08ACFD3
:1037900008958EBD0DB407FEFDCF8EB5089580E06F
:1037A000F8CF0895F6CF08950F931F93CF93DF932B
:1037B000082F162FD42FC22F61E08AE290E072DF2B
:1037C00060E08AE290E07ADF61E080EC90E076DF12
:1037D00062E081EC90E072DF62E082EC90E062DF18
:1037E00061E082EC90E05EDF67E082EC90E066DF13
:1037F000402F66E082EC90E07ADF65E082EC90E0BA
:1038000051DF412F64E082EC90E071DF4D2F63E0E7
:1038100082EC90E06CDF2C2F30E03093C5002093D9
:10382000C40067E081EC90E03DDFDF91CF911F9114
:103830000F910895CF93C82F462F64E081EC90E05C
:1038400056DF4C2F63E081EC90E051DFCF9108957B
:10385000E0ECF0E0908195FFFDCF8093C6000895E5
:103860001F920F920FB60F9211240BB60F92FF9278
:103870000F931F932F933F934F935F936F937F9378
:103880008F939F93AF93BF93CF93DF93EF93FF9368
:103890008091C60080939B0380919B03883C08F035
:1038A000D0C080919B03813209F097C0E0917603EC
:1038B000F0917703E07FFF277097F295E295EF7024
:1038C000EF27FF70EF27E55BFC4F8081882309F429
:1038D000D5C02BE040E150E013C0E0917603F091B9
:1038E0007703E07FFF277097F295E295EF70EF275F
:1038F000FF70EF27E55BFC4F8081882309F4BEC091
:10390000809176039091770340969093770380930C
:1039100076038091760390917703803B910520F0A8
:1039200050937703409376032150B9F6A1C060917C
:103930007603709177038E0108571C4FF801808140
:103940000E94A306F801F08280917603909177039C
:1039500001969093770380937603809176039091FC
:1039600077032196CD30D10511F710924A03E091EB
:103970007603F0917703E07FFF277097F295E29549
:10398000EF70EF27FF70EF27E55BFC4F81E080834E
:103990008091760390917703807F9F7040969093FB
:1039A0007703809376038091760390917703803B31
:1039B000910508F469C080E190E0909377038093CB
:1039C000760362C0FC01E857FC4F208301968D30DE
:1039D0009105C1F710924A0357C080919B038F3520
:1039E00021F481E080936B034FC080916B038130A1
:1039F000A1F4E09178038E0F80937803F0E080913A
:103A00009B03E050FF4F8083809178038530E0F185
:103A10001092780310926B0337C0E0914A03F0E0F4
:103A200080919B03E857FC4F808380914A038F5F0E
:103A300080934A0380914A038D3030F110924A03FB
:103A400023C080919B03803F29F08F3F41F08E3E41
:103A5000D9F40AC064E080E00E94420715C064E027
:103A600080E00E94260710C081E0809348030CC0CC
:103A700088E7EEDE80E090E020E2A4CFC0E0D0E076
:103A80006894FF24F5F853CFFF91EF91DF91CF9128
:103A9000BF91AF919F918F917F916F915F914F9166
:103AA0003F912F911F910F91FF900F900BBE0F90A0
:103AB0000FBE0F901F90189598D088F09F5790F0E8
:103AC000B92F9927B751A0F0D1F0660F771F881F43
:103AD000991F1AF0BA95C9F712C0B13081F09FD082
:103AE000B1E008959CC0672F782F8827B85F39F020
:103AF000B93FCCF3869577956795B395D9F73EF4A2
:103B000090958095709561957F4F8F4F9F4F089549
:103B1000E89409C097FB3EF4909580957095619567
:103B20007F4F8F4F9F4F9923A9F0F92F96E9BB271D
:103B30009395F695879577956795B795F111F8CF99
:103B4000FAF4BB0F11F460FF1BC06F5F7F4F8F4F04
:103B50009F4F16C0882311F096E911C0772321F0FA
:103B60009EE8872F762F05C0662371F096E8862F92
:103B700070E060E02AF09A95660F771F881FDAF7E9
:103B8000880F9695879597F9089597F99F6780E82C
:103B900070E060E008959FEF80EC089500240A949F
:103BA0001616170618060906089500240A94121618
:103BB0001306140605060895092E0394000C11F44B
:103BC000882352F0BB0F40F4BF2B11F460FF04C0F8
:103BD0006F5F7F4F8F4F9F4F089557FD9058440F51
:103BE000551F59F05F3F71F04795880F97FB991F5C
:103BF00061F09F3F79F08795089512161306140619
:103C0000551FF2CF4695F1DF08C0161617061806A5
:103C1000991FF1CF86957105610508940895E89480
:103C2000BB2766277727CB0197F908950BD0C4CF20
:103C3000B5DF28F0BADF18F0952309F0A6CFABCF97
:103C40001124EECFCADFA0F3959FD1F3950F50E07A
:103C5000551F629FF001729FBB27F00DB11D639F3E
:103C6000AA27F00DB11DAA1F649F6627B00DA11DE4
:103C7000661F829F2227B00DA11D621F739FB00D8A
:103C8000A11D621F839FA00D611D221F749F3327FA
:103C9000A00D611D231F849F600D211D822F762F93
:103CA0006A2F11249F5750408AF0E1F088234AF090
:103CB000EE0FFF1FBB1F661F771F881F91505040DC
:103CC000A9F79E3F510570F060CFAACF5F3FECF39C
:103CD000983EDCF3869577956795B795F795E795C8
:103CE0009F5FC1F7FE2B880F911D9695879597F9D9
:103CF000089597FB072E16F4009406D077FD08D0A0
:103D00000BD007FC05D03EF4909581959F4F089508
:103D1000709561957F4F0895AA1BBB1B51E107C0A9
:103D2000AA1FBB1FA617B70710F0A61BB70B881F4B
:103D3000991F5A95A9F780959095BC01CD010895DA
:043D4000F894FFCF25
:103D4400020B0D030C57656C636F6D652100507297
:103D5400657373204F4B004D6573616A206369740A
:103D6400697421004D6573616A20737465727321EF
:103D740000496E626F782066756C6C2100456E7424
:103D840065722070617373776F72643A00332E54D6
:103D9400656D703A20003E312E4D6573616A650091
:103DA40020322E436F6E74726F6C0020312E4D657D
:103DB40073616A65003E322E436F6E74726F6C00DD
:103DC4003E332E54656D70657261747572610020A6
:103DD400332E54656D7065726174757261003E3482
:103DE4002E496E756E6461746969003E312E312E00
:103DF4004E656369746974650020312E322E4369FF
:103E040074697465003E312E0020322E0020312E5C
:103E1400003E322E003E332E0020332E003E342E40
:103E24000020342E003E352E0020352E003E362E46
:103E34000020362E003E372E0020372E003E382E2E
:103E44000020382E003E392E0020392E003E412E0F
:103E54000020312E312E4E65636974697465003E0D
:103E6400312E322E436974697465003E312E332E2F
:103E74005374657267657265003E322E312E4D6152
:103E84006E75616C205B785D0020322E322E417598
:103E9400746F6D6174205B205D003E322E312E4DB7
:103EA400616E75616C205B205D0020322E322E41E4
:103EB40075746F6D6174205B785D0020322E312E35
:103EC4004D616E75616C205B785D003E322E322E42
:103ED4004175746F6D6174205B205D0020322E315A
:103EE4002E4D616E75616C205B205D003E322E327A
:103EF4002E4175746F6D6174205B785D003E342EC5
:103F0400312E0020202020202020202020200020CE
:103F1400342E322E0020342E312E003E342E322EFA
:103F2400003E342E332E0020342E332E003E342E09
:103F3400342E0020342E342E003E342E352E002014
:103F4400342E352E003E342E362E0020342E362EBE
:103F5400003E342E372E0020342E372E003E342ED1
:103F6400382E0020342E382E003E342E392E0020D8
:103F7400342E392E003E342E412E00202D200020D8
:083F8400756E726561640000B6
:00000001FF
